{
  "_format": "hh-sol-artifact-1",
  "contractName": "TrackFarm",
  "sourceName": "contracts/TrackFarm.sol",
  "abi": [
    {
      "anonymous": false,
      "inputs": [
        {
          "indexed": false,
          "internalType": "string",
          "name": "productId",
          "type": "string"
        },
        {
          "indexed": false,
          "internalType": "string",
          "name": "message",
          "type": "string"
        }
      ],
      "name": "DistributorDataUpdated",
      "type": "event"
    },
    {
      "anonymous": false,
      "inputs": [
        {
          "indexed": false,
          "internalType": "string",
          "name": "productId",
          "type": "string"
        },
        {
          "indexed": false,
          "internalType": "string",
          "name": "message",
          "type": "string"
        }
      ],
      "name": "FarmerDataUpdated",
      "type": "event"
    },
    {
      "anonymous": false,
      "inputs": [
        {
          "indexed": false,
          "internalType": "string",
          "name": "productId",
          "type": "string"
        },
        {
          "indexed": false,
          "internalType": "string",
          "name": "message",
          "type": "string"
        }
      ],
      "name": "ManufacturerDataUpdated",
      "type": "event"
    },
    {
      "anonymous": false,
      "inputs": [
        {
          "indexed": false,
          "internalType": "string",
          "name": "productId",
          "type": "string"
        },
        {
          "indexed": false,
          "internalType": "string",
          "name": "message",
          "type": "string"
        }
      ],
      "name": "ProductAdded",
      "type": "event"
    },
    {
      "inputs": [
        {
          "internalType": "string",
          "name": "_productId",
          "type": "string"
        },
        {
          "internalType": "string",
          "name": "_cropType",
          "type": "string"
        },
        {
          "internalType": "string",
          "name": "_location",
          "type": "string"
        },
        {
          "internalType": "string",
          "name": "_fertiliser",
          "type": "string"
        },
        {
          "internalType": "uint256",
          "name": "_harvestDate",
          "type": "uint256"
        },
        {
          "internalType": "uint256",
          "name": "_quantity",
          "type": "uint256"
        }
      ],
      "name": "addProduct",
      "outputs": [],
      "stateMutability": "nonpayable",
      "type": "function"
    },
    {
      "inputs": [
        {
          "internalType": "string",
          "name": "_productId",
          "type": "string"
        }
      ],
      "name": "getProductData",
      "outputs": [
        {
          "components": [
            {
              "internalType": "string",
              "name": "productId",
              "type": "string"
            },
            {
              "components": [
                {
                  "internalType": "string",
                  "name": "cropType",
                  "type": "string"
                },
                {
                  "internalType": "string",
                  "name": "location",
                  "type": "string"
                },
                {
                  "internalType": "string",
                  "name": "fertiliser",
                  "type": "string"
                },
                {
                  "internalType": "uint256",
                  "name": "harvestDate",
                  "type": "uint256"
                },
                {
                  "internalType": "uint256",
                  "name": "quantity",
                  "type": "uint256"
                }
              ],
              "internalType": "struct TrackFarm.FarmerData",
              "name": "farmerData",
              "type": "tuple"
            },
            {
              "components": [
                {
                  "internalType": "string",
                  "name": "productType",
                  "type": "string"
                },
                {
                  "internalType": "uint256",
                  "name": "manufactureDate",
                  "type": "uint256"
                },
                {
                  "internalType": "uint256",
                  "name": "quantityProduced",
                  "type": "uint256"
                }
              ],
              "internalType": "struct TrackFarm.ManufacturerData",
              "name": "manufacturerData",
              "type": "tuple"
            },
            {
              "components": [
                {
                  "internalType": "string",
                  "name": "destination",
                  "type": "string"
                },
                {
                  "internalType": "uint256",
                  "name": "dispatchDate",
                  "type": "uint256"
                },
                {
                  "internalType": "uint256",
                  "name": "quantityDispatched",
                  "type": "uint256"
                }
              ],
              "internalType": "struct TrackFarm.DistributorData",
              "name": "distributorData",
              "type": "tuple"
            }
          ],
          "internalType": "struct TrackFarm.ProductData",
          "name": "",
          "type": "tuple"
        }
      ],
      "stateMutability": "view",
      "type": "function"
    },
    {
      "inputs": [
        {
          "internalType": "bytes32",
          "name": "",
          "type": "bytes32"
        }
      ],
      "name": "products",
      "outputs": [
        {
          "internalType": "string",
          "name": "productId",
          "type": "string"
        },
        {
          "components": [
            {
              "internalType": "string",
              "name": "cropType",
              "type": "string"
            },
            {
              "internalType": "string",
              "name": "location",
              "type": "string"
            },
            {
              "internalType": "string",
              "name": "fertiliser",
              "type": "string"
            },
            {
              "internalType": "uint256",
              "name": "harvestDate",
              "type": "uint256"
            },
            {
              "internalType": "uint256",
              "name": "quantity",
              "type": "uint256"
            }
          ],
          "internalType": "struct TrackFarm.FarmerData",
          "name": "farmerData",
          "type": "tuple"
        },
        {
          "components": [
            {
              "internalType": "string",
              "name": "productType",
              "type": "string"
            },
            {
              "internalType": "uint256",
              "name": "manufactureDate",
              "type": "uint256"
            },
            {
              "internalType": "uint256",
              "name": "quantityProduced",
              "type": "uint256"
            }
          ],
          "internalType": "struct TrackFarm.ManufacturerData",
          "name": "manufacturerData",
          "type": "tuple"
        },
        {
          "components": [
            {
              "internalType": "string",
              "name": "destination",
              "type": "string"
            },
            {
              "internalType": "uint256",
              "name": "dispatchDate",
              "type": "uint256"
            },
            {
              "internalType": "uint256",
              "name": "quantityDispatched",
              "type": "uint256"
            }
          ],
          "internalType": "struct TrackFarm.DistributorData",
          "name": "distributorData",
          "type": "tuple"
        }
      ],
      "stateMutability": "view",
      "type": "function"
    },
    {
      "inputs": [
        {
          "internalType": "string",
          "name": "_productId",
          "type": "string"
        },
        {
          "internalType": "string",
          "name": "_destination",
          "type": "string"
        },
        {
          "internalType": "uint256",
          "name": "_dispatchDate",
          "type": "uint256"
        },
        {
          "internalType": "uint256",
          "name": "_quantityDispatched",
          "type": "uint256"
        }
      ],
      "name": "updateDistributorData",
      "outputs": [],
      "stateMutability": "nonpayable",
      "type": "function"
    },
    {
      "inputs": [
        {
          "internalType": "string",
          "name": "_productId",
          "type": "string"
        },
        {
          "internalType": "string",
          "name": "_productType",
          "type": "string"
        },
        {
          "internalType": "uint256",
          "name": "_manufactureDate",
          "type": "uint256"
        },
        {
          "internalType": "uint256",
          "name": "_quantityProduced",
          "type": "uint256"
        }
      ],
      "name": "updateManufacturerData",
      "outputs": [],
      "stateMutability": "nonpayable",
      "type": "function"
    }
  ],
  "bytecode": "0x6080604052348015600f57600080fd5b50611c6d8061001f6000396000f3fe608060405234801561001057600080fd5b50600436106100575760003560e01c806347e1ec5c1461005c57806361655e12146100785780637905439114610094578063818648e1146100c75780638f4025ab146100f7575b600080fd5b61007660048036038101906100719190611048565b610113565b005b610092600480360381019061008d91906110e7565b61021f565b005b6100ae60048036038101906100a9919061121a565b610463565b6040516100be9493929190611443565b60405180910390f35b6100e160048036038101906100dc91906114a4565b61084f565b6040516100ee9190611689565b60405180910390f35b610111600480360381019061010c9190611048565b610cd1565b005b600061011e85610ddd565b905060008060008381526020019081526020016000206000018054610142906116da565b905003610184576040517f08c379a000000000000000000000000000000000000000000000000000000000815260040161017b90611757565b60405180910390fd5b60405180606001604052808581526020018481526020018381525060008083815260200190815260200160002060060160008201518160000190816101c99190611923565b5060208201518160010155604082015181600201559050507f530076b34765a27ea01780c603a7beed6a6b7713ca814755e282373ec124e505856040516102109190611a41565b60405180910390a15050505050565b600061022a87610ddd565b90506000806000838152602001908152602001600020600001805461024e906116da565b905014610290576040517f08c379a000000000000000000000000000000000000000000000000000000000815260040161028790611ac2565b60405180910390fd5b60405180608001604052808881526020016040518060a0016040528089815260200188815260200187815260200186815260200185815250815260200160405180606001604052806040518060200160405280600081525081526020016000815260200160008152508152602001604051806060016040528060405180602001604052806000815250815260200160008152602001600081525081525060008083815260200190815260200160002060008201518160000190816103549190611923565b5060208201518160010160008201518160000190816103739190611923565b5060208201518160010190816103899190611923565b50604082015181600201908161039f9190611923565b506060820151816003015560808201518160040155505060408201518160060160008201518160000190816103d49190611923565b506020820151816001015560408201518160020155505060608201518160090160008201518160000190816104099190611923565b50602082015181600101556040820151816002015550509050507f50d3c24bed1484121cd34fb35cea80691f70b0818948c325aef1206b13454433876040516104529190611b2e565b60405180910390a150505050505050565b6000602052806000526040600020600091509050806000018054610486906116da565b80601f01602080910402602001604051908101604052809291908181526020018280546104b2906116da565b80156104ff5780601f106104d4576101008083540402835291602001916104ff565b820191906000526020600020905b8154815290600101906020018083116104e257829003601f168201915b505050505090806001016040518060a0016040529081600082018054610524906116da565b80601f0160208091040260200160405190810160405280929190818152602001828054610550906116da565b801561059d5780601f106105725761010080835404028352916020019161059d565b820191906000526020600020905b81548152906001019060200180831161058057829003601f168201915b505050505081526020016001820180546105b6906116da565b80601f01602080910402602001604051908101604052809291908181526020018280546105e2906116da565b801561062f5780601f106106045761010080835404028352916020019161062f565b820191906000526020600020905b81548152906001019060200180831161061257829003601f168201915b50505050508152602001600282018054610648906116da565b80601f0160208091040260200160405190810160405280929190818152602001828054610674906116da565b80156106c15780601f10610696576101008083540402835291602001916106c1565b820191906000526020600020905b8154815290600101906020018083116106a457829003601f168201915b505050505081526020016003820154815260200160048201548152505090806006016040518060600160405290816000820180546106fe906116da565b80601f016020809104026020016040519081016040528092919081815260200182805461072a906116da565b80156107775780601f1061074c57610100808354040283529160200191610777565b820191906000526020600020905b81548152906001019060200180831161075a57829003601f168201915b505050505081526020016001820154815260200160028201548152505090806009016040518060600160405290816000820180546107b4906116da565b80601f01602080910402602001604051908101604052809291908181526020018280546107e0906116da565b801561082d5780601f106108025761010080835404028352916020019161082d565b820191906000526020600020905b81548152906001019060200180831161081057829003601f168201915b5050505050815260200160018201548152602001600282015481525050905084565b610857610e0d565b600061086283610ddd565b905060008060008381526020019081526020016000206000018054610886906116da565b9050036108c8576040517f08c379a00000000000000000000000000000000000000000000000000000000081526004016108bf90611757565b60405180910390fd5b6000808281526020019081526020016000206040518060800160405290816000820180546108f5906116da565b80601f0160208091040260200160405190810160405280929190818152602001828054610921906116da565b801561096e5780601f106109435761010080835404028352916020019161096e565b820191906000526020600020905b81548152906001019060200180831161095157829003601f168201915b50505050508152602001600182016040518060a0016040529081600082018054610997906116da565b80601f01602080910402602001604051908101604052809291908181526020018280546109c3906116da565b8015610a105780601f106109e557610100808354040283529160200191610a10565b820191906000526020600020905b8154815290600101906020018083116109f357829003601f168201915b50505050508152602001600182018054610a29906116da565b80601f0160208091040260200160405190810160405280929190818152602001828054610a55906116da565b8015610aa25780601f10610a7757610100808354040283529160200191610aa2565b820191906000526020600020905b815481529060010190602001808311610a8557829003601f168201915b50505050508152602001600282018054610abb906116da565b80601f0160208091040260200160405190810160405280929190818152602001828054610ae7906116da565b8015610b345780601f10610b0957610100808354040283529160200191610b34565b820191906000526020600020905b815481529060010190602001808311610b1757829003601f168201915b5050505050815260200160038201548152602001600482015481525050815260200160068201604051806060016040529081600082018054610b75906116da565b80601f0160208091040260200160405190810160405280929190818152602001828054610ba1906116da565b8015610bee5780601f10610bc357610100808354040283529160200191610bee565b820191906000526020600020905b815481529060010190602001808311610bd157829003601f168201915b5050505050815260200160018201548152602001600282015481525050815260200160098201604051806060016040529081600082018054610c2f906116da565b80601f0160208091040260200160405190810160405280929190818152602001828054610c5b906116da565b8015610ca85780601f10610c7d57610100808354040283529160200191610ca8565b820191906000526020600020905b815481529060010190602001808311610c8b57829003601f168201915b505050505081526020016001820154815260200160028201548152505081525050915050919050565b6000610cdc85610ddd565b905060008060008381526020019081526020016000206000018054610d00906116da565b905003610d42576040517f08c379a0000000000000000000000000000000000000000000000000000000008152600401610d3990611757565b60405180910390fd5b6040518060600160405280858152602001848152602001838152506000808381526020019081526020016000206009016000820151816000019081610d879190611923565b5060208201518160010155604082015181600201559050507f17955622235c9f5b82067ef54afe2b9d46f9ed4859df0e2bb55d2952c4261cca85604051610dce9190611baf565b60405180910390a15050505050565b600081604051602001610df09190611c20565b604051602081830303815290604052805190602001209050919050565b604051806080016040528060608152602001610e27610e47565b8152602001610e34610e76565b8152602001610e41610e97565b81525090565b6040518060a0016040528060608152602001606081526020016060815260200160008152602001600081525090565b60405180606001604052806060815260200160008152602001600081525090565b60405180606001604052806060815260200160008152602001600081525090565b6000604051905090565b600080fd5b600080fd5b600080fd5b600080fd5b6000601f19601f8301169050919050565b7f4e487b7100000000000000000000000000000000000000000000000000000000600052604160045260246000fd5b610f1f82610ed6565b810181811067ffffffffffffffff82111715610f3e57610f3d610ee7565b5b80604052505050565b6000610f51610eb8565b9050610f5d8282610f16565b919050565b600067ffffffffffffffff821115610f7d57610f7c610ee7565b5b610f8682610ed6565b9050602081019050919050565b82818337600083830152505050565b6000610fb5610fb084610f62565b610f47565b905082815260208101848484011115610fd157610fd0610ed1565b5b610fdc848285610f93565b509392505050565b600082601f830112610ff957610ff8610ecc565b5b8135611009848260208601610fa2565b91505092915050565b6000819050919050565b61102581611012565b811461103057600080fd5b50565b6000813590506110428161101c565b92915050565b6000806000806080858703121561106257611061610ec2565b5b600085013567ffffffffffffffff8111156110805761107f610ec7565b5b61108c87828801610fe4565b945050602085013567ffffffffffffffff8111156110ad576110ac610ec7565b5b6110b987828801610fe4565b93505060406110ca87828801611033565b92505060606110db87828801611033565b91505092959194509250565b60008060008060008060c0878903121561110457611103610ec2565b5b600087013567ffffffffffffffff81111561112257611121610ec7565b5b61112e89828a01610fe4565b965050602087013567ffffffffffffffff81111561114f5761114e610ec7565b5b61115b89828a01610fe4565b955050604087013567ffffffffffffffff81111561117c5761117b610ec7565b5b61118889828a01610fe4565b945050606087013567ffffffffffffffff8111156111a9576111a8610ec7565b5b6111b589828a01610fe4565b93505060806111c689828a01611033565b92505060a06111d789828a01611033565b9150509295509295509295565b6000819050919050565b6111f7816111e4565b811461120257600080fd5b50565b600081359050611214816111ee565b92915050565b6000602082840312156112305761122f610ec2565b5b600061123e84828501611205565b91505092915050565b600081519050919050565b600082825260208201905092915050565b60005b83811015611281578082015181840152602081019050611266565b60008484015250505050565b600061129882611247565b6112a28185611252565b93506112b2818560208601611263565b6112bb81610ed6565b840191505092915050565b600082825260208201905092915050565b60006112e282611247565b6112ec81856112c6565b93506112fc818560208601611263565b61130581610ed6565b840191505092915050565b61131981611012565b82525050565b600060a083016000830151848203600086015261133c82826112d7565b9150506020830151848203602086015261135682826112d7565b9150506040830151848203604086015261137082826112d7565b91505060608301516113856060860182611310565b5060808301516113986080860182611310565b508091505092915050565b600060608301600083015184820360008601526113c082826112d7565b91505060208301516113d56020860182611310565b5060408301516113e86040860182611310565b508091505092915050565b6000606083016000830151848203600086015261141082826112d7565b91505060208301516114256020860182611310565b5060408301516114386040860182611310565b508091505092915050565b6000608082019050818103600083015261145d818761128d565b90508181036020830152611471818661131f565b9050818103604083015261148581856113a3565b9050818103606083015261149981846113f3565b905095945050505050565b6000602082840312156114ba576114b9610ec2565b5b600082013567ffffffffffffffff8111156114d8576114d7610ec7565b5b6114e484828501610fe4565b91505092915050565b600060a083016000830151848203600086015261150a82826112d7565b9150506020830151848203602086015261152482826112d7565b9150506040830151848203604086015261153e82826112d7565b91505060608301516115536060860182611310565b5060808301516115666080860182611310565b508091505092915050565b6000606083016000830151848203600086015261158e82826112d7565b91505060208301516115a36020860182611310565b5060408301516115b66040860182611310565b508091505092915050565b600060608301600083015184820360008601526115de82826112d7565b91505060208301516115f36020860182611310565b5060408301516116066040860182611310565b508091505092915050565b6000608083016000830151848203600086015261162e82826112d7565b9150506020830151848203602086015261164882826114ed565b915050604083015184820360408601526116628282611571565b9150506060830151848203606086015261167c82826115c1565b9150508091505092915050565b600060208201905081810360008301526116a38184611611565b905092915050565b7f4e487b7100000000000000000000000000000000000000000000000000000000600052602260045260246000fd5b600060028204905060018216806116f257607f821691505b602082108103611705576117046116ab565b5b50919050565b7f50726f6475637420646f6573206e6f7420657869737400000000000000000000600082015250565b6000611741601683611252565b915061174c8261170b565b602082019050919050565b6000602082019050818103600083015261177081611734565b9050919050565b60008190508160005260206000209050919050565b60006020601f8301049050919050565b600082821b905092915050565b6000600883026117d97fffffffffffffffffffffffffffffffffffffffffffffffffffffffffffffffff8261179c565b6117e3868361179c565b95508019841693508086168417925050509392505050565b6000819050919050565b600061182061181b61181684611012565b6117fb565b611012565b9050919050565b6000819050919050565b61183a83611805565b61184e61184682611827565b8484546117a9565b825550505050565b600090565b611863611856565b61186e818484611831565b505050565b5b818110156118925761188760008261185b565b600181019050611874565b5050565b601f8211156118d7576118a881611777565b6118b18461178c565b810160208510156118c0578190505b6118d46118cc8561178c565b830182611873565b50505b505050565b600082821c905092915050565b60006118fa600019846008026118dc565b1980831691505092915050565b600061191383836118e9565b9150826002028217905092915050565b61192c82611247565b67ffffffffffffffff81111561194557611944610ee7565b5b61194f82546116da565b61195a828285611896565b600060209050601f83116001811461198d576000841561197b578287015190505b6119858582611907565b8655506119ed565b601f19841661199b86611777565b60005b828110156119c35784890151825560018201915060208501945060208101905061199e565b868310156119e057848901516119dc601f8916826118e9565b8355505b6001600288020188555050505b505050505050565b7f4d616e7566616374757265724461746120757064617465640000000000000000600082015250565b6000611a2b601883611252565b9150611a36826119f5565b602082019050919050565b60006040820190508181036000830152611a5b818461128d565b90508181036020830152611a6e81611a1e565b905092915050565b7f50726f6475637420616c72656164792065786973747300000000000000000000600082015250565b6000611aac601683611252565b9150611ab782611a76565b602082019050919050565b60006020820190508181036000830152611adb81611a9f565b9050919050565b7f50726f6475637420637265617465642077697468204661726d65724461746100600082015250565b6000611b18601f83611252565b9150611b2382611ae2565b602082019050919050565b60006040820190508181036000830152611b48818461128d565b90508181036020830152611b5b81611b0b565b905092915050565b7f4469737472696275746f72446174612075706461746564000000000000000000600082015250565b6000611b99601783611252565b9150611ba482611b63565b602082019050919050565b60006040820190508181036000830152611bc9818461128d565b90508181036020830152611bdc81611b8c565b905092915050565b600081905092915050565b6000611bfa82611247565b611c048185611be4565b9350611c14818560208601611263565b80840191505092915050565b6000611c2c8284611bef565b91508190509291505056fea2646970667358221220ba2d900171ceaee4114d27b4d8f46727806ac638693f8983defbdcbe7c39ace064736f6c634300081b0033",
  "linkReferences": {},
  "deployedLinkReferences": {}
}