{
  "contracts/TrackFarm.sol": {
    "TrackFarm": {
      "abi": [
        {
          "anonymous": false,
          "inputs": [
            {
              "indexed": false,
              "internalType": "uint256",
              "name": "productId",
              "type": "uint256"
            },
            {
              "indexed": false,
              "internalType": "string",
              "name": "message",
              "type": "string"
            }
          ],
          "name": "DistributorDataUpdated",
          "type": "event"
        },
        {
          "anonymous": false,
          "inputs": [
            {
              "indexed": false,
              "internalType": "uint256",
              "name": "productId",
              "type": "uint256"
            },
            {
              "indexed": false,
              "internalType": "string",
              "name": "message",
              "type": "string"
            }
          ],
          "name": "FarmerDataUpdated",
          "type": "event"
        },
        {
          "anonymous": false,
          "inputs": [
            {
              "indexed": false,
              "internalType": "uint256",
              "name": "productId",
              "type": "uint256"
            },
            {
              "indexed": false,
              "internalType": "string",
              "name": "message",
              "type": "string"
            }
          ],
          "name": "ManufacturerDataUpdated",
          "type": "event"
        },
        {
          "anonymous": false,
          "inputs": [
            {
              "indexed": false,
              "internalType": "uint256",
              "name": "productId",
              "type": "uint256"
            },
            {
              "indexed": false,
              "internalType": "string",
              "name": "message",
              "type": "string"
            }
          ],
          "name": "ProcessorDataUpdated",
          "type": "event"
        },
        {
          "anonymous": false,
          "inputs": [
            {
              "indexed": false,
              "internalType": "uint256",
              "name": "productId",
              "type": "uint256"
            },
            {
              "indexed": false,
              "internalType": "string",
              "name": "message",
              "type": "string"
            }
          ],
          "name": "ProductAdded",
          "type": "event"
        },
        {
          "inputs": [
            {
              "internalType": "uint256",
              "name": "_productId",
              "type": "uint256"
            },
            {
              "internalType": "string",
              "name": "_cropType",
              "type": "string"
            },
            {
              "internalType": "string",
              "name": "_location",
              "type": "string"
            },
            {
              "internalType": "string",
              "name": "_fertiliser",
              "type": "string"
            },
            {
              "internalType": "uint256",
              "name": "_harvestDate",
              "type": "uint256"
            },
            {
              "internalType": "uint256",
              "name": "_quantity",
              "type": "uint256"
            }
          ],
          "name": "addProduct",
          "outputs": [],
          "stateMutability": "nonpayable",
          "type": "function"
        },
        {
          "inputs": [
            {
              "internalType": "uint256",
              "name": "_productId",
              "type": "uint256"
            }
          ],
          "name": "getProductData",
          "outputs": [
            {
              "components": [
                {
                  "internalType": "uint256",
                  "name": "productId",
                  "type": "uint256"
                },
                {
                  "components": [
                    {
                      "internalType": "string",
                      "name": "cropType",
                      "type": "string"
                    },
                    {
                      "internalType": "string",
                      "name": "location",
                      "type": "string"
                    },
                    {
                      "internalType": "string",
                      "name": "fertiliser",
                      "type": "string"
                    },
                    {
                      "internalType": "uint256",
                      "name": "harvestDate",
                      "type": "uint256"
                    },
                    {
                      "internalType": "uint256",
                      "name": "quantity",
                      "type": "uint256"
                    }
                  ],
                  "internalType": "struct TrackFarm.FarmerData",
                  "name": "farmerData",
                  "type": "tuple"
                },
                {
                  "components": [
                    {
                      "internalType": "string",
                      "name": "processType",
                      "type": "string"
                    },
                    {
                      "internalType": "uint256",
                      "name": "processDate",
                      "type": "uint256"
                    },
                    {
                      "internalType": "uint256",
                      "name": "quantityProcessed",
                      "type": "uint256"
                    }
                  ],
                  "internalType": "struct TrackFarm.ProcessorData",
                  "name": "processorData",
                  "type": "tuple"
                },
                {
                  "components": [
                    {
                      "internalType": "string",
                      "name": "productType",
                      "type": "string"
                    },
                    {
                      "internalType": "uint256",
                      "name": "manufactureDate",
                      "type": "uint256"
                    },
                    {
                      "internalType": "uint256",
                      "name": "quantityProduced",
                      "type": "uint256"
                    }
                  ],
                  "internalType": "struct TrackFarm.ManufacturerData",
                  "name": "manufacturerData",
                  "type": "tuple"
                },
                {
                  "components": [
                    {
                      "internalType": "string",
                      "name": "destination",
                      "type": "string"
                    },
                    {
                      "internalType": "uint256",
                      "name": "dispatchDate",
                      "type": "uint256"
                    },
                    {
                      "internalType": "uint256",
                      "name": "quantityDispatched",
                      "type": "uint256"
                    }
                  ],
                  "internalType": "struct TrackFarm.DistributorData",
                  "name": "distributorData",
                  "type": "tuple"
                }
              ],
              "internalType": "struct TrackFarm.ProductData",
              "name": "",
              "type": "tuple"
            }
          ],
          "stateMutability": "view",
          "type": "function"
        },
        {
          "inputs": [
            {
              "internalType": "uint256",
              "name": "",
              "type": "uint256"
            }
          ],
          "name": "products",
          "outputs": [
            {
              "internalType": "uint256",
              "name": "productId",
              "type": "uint256"
            },
            {
              "components": [
                {
                  "internalType": "string",
                  "name": "cropType",
                  "type": "string"
                },
                {
                  "internalType": "string",
                  "name": "location",
                  "type": "string"
                },
                {
                  "internalType": "string",
                  "name": "fertiliser",
                  "type": "string"
                },
                {
                  "internalType": "uint256",
                  "name": "harvestDate",
                  "type": "uint256"
                },
                {
                  "internalType": "uint256",
                  "name": "quantity",
                  "type": "uint256"
                }
              ],
              "internalType": "struct TrackFarm.FarmerData",
              "name": "farmerData",
              "type": "tuple"
            },
            {
              "components": [
                {
                  "internalType": "string",
                  "name": "processType",
                  "type": "string"
                },
                {
                  "internalType": "uint256",
                  "name": "processDate",
                  "type": "uint256"
                },
                {
                  "internalType": "uint256",
                  "name": "quantityProcessed",
                  "type": "uint256"
                }
              ],
              "internalType": "struct TrackFarm.ProcessorData",
              "name": "processorData",
              "type": "tuple"
            },
            {
              "components": [
                {
                  "internalType": "string",
                  "name": "productType",
                  "type": "string"
                },
                {
                  "internalType": "uint256",
                  "name": "manufactureDate",
                  "type": "uint256"
                },
                {
                  "internalType": "uint256",
                  "name": "quantityProduced",
                  "type": "uint256"
                }
              ],
              "internalType": "struct TrackFarm.ManufacturerData",
              "name": "manufacturerData",
              "type": "tuple"
            },
            {
              "components": [
                {
                  "internalType": "string",
                  "name": "destination",
                  "type": "string"
                },
                {
                  "internalType": "uint256",
                  "name": "dispatchDate",
                  "type": "uint256"
                },
                {
                  "internalType": "uint256",
                  "name": "quantityDispatched",
                  "type": "uint256"
                }
              ],
              "internalType": "struct TrackFarm.DistributorData",
              "name": "distributorData",
              "type": "tuple"
            }
          ],
          "stateMutability": "view",
          "type": "function"
        },
        {
          "inputs": [
            {
              "internalType": "uint256",
              "name": "_productId",
              "type": "uint256"
            },
            {
              "internalType": "string",
              "name": "_destination",
              "type": "string"
            },
            {
              "internalType": "uint256",
              "name": "_dispatchDate",
              "type": "uint256"
            },
            {
              "internalType": "uint256",
              "name": "_quantityDispatched",
              "type": "uint256"
            }
          ],
          "name": "updateDistributorData",
          "outputs": [],
          "stateMutability": "nonpayable",
          "type": "function"
        },
        {
          "inputs": [
            {
              "internalType": "uint256",
              "name": "_productId",
              "type": "uint256"
            },
            {
              "internalType": "string",
              "name": "_productType",
              "type": "string"
            },
            {
              "internalType": "uint256",
              "name": "_manufactureDate",
              "type": "uint256"
            },
            {
              "internalType": "uint256",
              "name": "_quantityProduced",
              "type": "uint256"
            }
          ],
          "name": "updateManufacturerData",
          "outputs": [],
          "stateMutability": "nonpayable",
          "type": "function"
        },
        {
          "inputs": [
            {
              "internalType": "uint256",
              "name": "_productId",
              "type": "uint256"
            },
            {
              "internalType": "string",
              "name": "_processType",
              "type": "string"
            },
            {
              "internalType": "uint256",
              "name": "_processDate",
              "type": "uint256"
            },
            {
              "internalType": "uint256",
              "name": "_quantityProcessed",
              "type": "uint256"
            }
          ],
          "name": "updateProcessorData",
          "outputs": [],
          "stateMutability": "nonpayable",
          "type": "function"
        }
      ],
      "evm": {
        "bytecode": {
          "linkReferences": {},
          "object": "6080604052348015600f57600080fd5b50611bfd8061001f6000396000f3fe608060405234801561001057600080fd5b50600436106100625760003560e01c80637acc0b20146100675780638a4c747f1461009b578063c691f37c146100b7578063d6d0be9f146100d3578063ed96c9e614610103578063effb3b191461011f575b600080fd5b610081600480360381019061007c9190610f0c565b61013b565b60405161009295949392919061115b565b60405180910390f35b6100b560048036038101906100b091906112ff565b610555565b005b6100d160048036038101906100cc91906113e0565b6107d9565b005b6100ed60048036038101906100e89190610f0c565b610873565b6040516100fa9190611662565b60405180910390f35b61011d600480360381019061011891906113e0565b610cb5565b005b610139600480360381019061013491906113e0565b610d4f565b005b6000602052806000526040600020600091509050806000015490806001016040518060a0016040529081600082018054610174906116b3565b80601f01602080910402602001604051908101604052809291908181526020018280546101a0906116b3565b80156101ed5780601f106101c2576101008083540402835291602001916101ed565b820191906000526020600020905b8154815290600101906020018083116101d057829003601f168201915b50505050508152602001600182018054610206906116b3565b80601f0160208091040260200160405190810160405280929190818152602001828054610232906116b3565b801561027f5780601f106102545761010080835404028352916020019161027f565b820191906000526020600020905b81548152906001019060200180831161026257829003601f168201915b50505050508152602001600282018054610298906116b3565b80601f01602080910402602001604051908101604052809291908181526020018280546102c4906116b3565b80156103115780601f106102e657610100808354040283529160200191610311565b820191906000526020600020905b8154815290600101906020018083116102f457829003601f168201915b5050505050815260200160038201548152602001600482015481525050908060060160405180606001604052908160008201805461034e906116b3565b80601f016020809104026020016040519081016040528092919081815260200182805461037a906116b3565b80156103c75780601f1061039c576101008083540402835291602001916103c7565b820191906000526020600020905b8154815290600101906020018083116103aa57829003601f168201915b50505050508152602001600182015481526020016002820154815250509080600901604051806060016040529081600082018054610404906116b3565b80601f0160208091040260200160405190810160405280929190818152602001828054610430906116b3565b801561047d5780601f106104525761010080835404028352916020019161047d565b820191906000526020600020905b81548152906001019060200180831161046057829003601f168201915b50505050508152602001600182015481526020016002820154815250509080600c016040518060600160405290816000820180546104ba906116b3565b80601f01602080910402602001604051908101604052809291908181526020018280546104e6906116b3565b80156105335780601f1061050857610100808354040283529160200191610533565b820191906000526020600020905b81548152906001019060200180831161051657829003601f168201915b5050505050815260200160018201548152602001600282015481525050905085565b600080600088815260200190815260200160002060000154146105ad576040517f08c379a00000000000000000000000000000000000000000000000000000000081526004016105a490611741565b60405180910390fd5b6040518060a001604052808781526020016040518060a00160405280888152602001878152602001868152602001858152602001848152508152602001604051806060016040528060405180602001604052806000815250815260200160008152602001600081525081526020016040518060600160405280604051806020016040528060008152508152602001600081526020016000815250815260200160405180606001604052806040518060200160405280600081525081526020016000815260200160008152508152506000808881526020019081526020016000206000820151816000015560208201518160010160008201518160000190816106b5919061190d565b5060208201518160010190816106cb919061190d565b5060408201518160020190816106e1919061190d565b50606082015181600301556080820151816004015550506040820151816006016000820151816000019081610716919061190d565b5060208201518160010155604082015181600201555050606082015181600901600082015181600001908161074b919061190d565b5060208201518160010155604082015181600201555050608082015181600c016000820151816000019081610780919061190d565b50602082015181600101556040820151816002015550509050507f259101de1f87b04b9ee0332ce5e3cc508014004bf283424aead6cd8692f5cf98866040516107c99190611a2b565b60405180910390a1505050505050565b604051806060016040528084815260200183815260200182815250600080868152602001908152602001600020600601600082015181600001908161081e919061190d565b5060208201518160010155604082015181600201559050507fcccdbd5f0525e1f44403bdaa0d1c795abc13b4ca98a768d213b6f997f471b421846040516108659190611aa5565b60405180910390a150505050565b61087b610de9565b6000808381526020019081526020016000206040518060a001604052908160008201548152602001600182016040518060a00160405290816000820180546108c2906116b3565b80601f01602080910402602001604051908101604052809291908181526020018280546108ee906116b3565b801561093b5780601f106109105761010080835404028352916020019161093b565b820191906000526020600020905b81548152906001019060200180831161091e57829003601f168201915b50505050508152602001600182018054610954906116b3565b80601f0160208091040260200160405190810160405280929190818152602001828054610980906116b3565b80156109cd5780601f106109a2576101008083540402835291602001916109cd565b820191906000526020600020905b8154815290600101906020018083116109b057829003601f168201915b505050505081526020016002820180546109e6906116b3565b80601f0160208091040260200160405190810160405280929190818152602001828054610a12906116b3565b8015610a5f5780601f10610a3457610100808354040283529160200191610a5f565b820191906000526020600020905b815481529060010190602001808311610a4257829003601f168201915b5050505050815260200160038201548152602001600482015481525050815260200160068201604051806060016040529081600082018054610aa0906116b3565b80601f0160208091040260200160405190810160405280929190818152602001828054610acc906116b3565b8015610b195780601f10610aee57610100808354040283529160200191610b19565b820191906000526020600020905b815481529060010190602001808311610afc57829003601f168201915b5050505050815260200160018201548152602001600282015481525050815260200160098201604051806060016040529081600082018054610b5a906116b3565b80601f0160208091040260200160405190810160405280929190818152602001828054610b86906116b3565b8015610bd35780601f10610ba857610100808354040283529160200191610bd3565b820191906000526020600020905b815481529060010190602001808311610bb657829003601f168201915b50505050508152602001600182015481526020016002820154815250508152602001600c8201604051806060016040529081600082018054610c14906116b3565b80601f0160208091040260200160405190810160405280929190818152602001828054610c40906116b3565b8015610c8d5780601f10610c6257610100808354040283529160200191610c8d565b820191906000526020600020905b815481529060010190602001808311610c7057829003601f168201915b5050505050815260200160018201548152602001600282015481525050815250509050919050565b6040518060600160405280848152602001838152602001828152506000808681526020019081526020016000206009016000820151816000019081610cfa919061190d565b5060208201518160010155604082015181600201559050507f42729a3b31505fc0605add0ca32a9d07b77f8d4fe8d64eb4797b782dd9a1490e84604051610d419190611b1f565b60405180910390a150505050565b604051806060016040528084815260200183815260200182815250600080868152602001908152602001600020600c016000820151816000019081610d94919061190d565b5060208201518160010155604082015181600201559050507f8a9576551bf770e0b49e5ea82e299ecb78e8342bfab40297667a58ce8fa776df84604051610ddb9190611b99565b60405180910390a150505050565b6040518060a0016040528060008152602001610e03610e30565b8152602001610e10610e5f565b8152602001610e1d610e80565b8152602001610e2a610ea1565b81525090565b6040518060a0016040528060608152602001606081526020016060815260200160008152602001600081525090565b60405180606001604052806060815260200160008152602001600081525090565b60405180606001604052806060815260200160008152602001600081525090565b60405180606001604052806060815260200160008152602001600081525090565b6000604051905090565b600080fd5b600080fd5b6000819050919050565b610ee981610ed6565b8114610ef457600080fd5b50565b600081359050610f0681610ee0565b92915050565b600060208284031215610f2257610f21610ecc565b5b6000610f3084828501610ef7565b91505092915050565b610f4281610ed6565b82525050565b600081519050919050565b600082825260208201905092915050565b60005b83811015610f82578082015181840152602081019050610f67565b60008484015250505050565b6000601f19601f8301169050919050565b6000610faa82610f48565b610fb48185610f53565b9350610fc4818560208601610f64565b610fcd81610f8e565b840191505092915050565b610fe181610ed6565b82525050565b600060a08301600083015184820360008601526110048282610f9f565b9150506020830151848203602086015261101e8282610f9f565b915050604083015184820360408601526110388282610f9f565b915050606083015161104d6060860182610fd8565b5060808301516110606080860182610fd8565b508091505092915050565b600060608301600083015184820360008601526110888282610f9f565b915050602083015161109d6020860182610fd8565b5060408301516110b06040860182610fd8565b508091505092915050565b600060608301600083015184820360008601526110d88282610f9f565b91505060208301516110ed6020860182610fd8565b5060408301516111006040860182610fd8565b508091505092915050565b600060608301600083015184820360008601526111288282610f9f565b915050602083015161113d6020860182610fd8565b5060408301516111506040860182610fd8565b508091505092915050565b600060a0820190506111706000830188610f39565b81810360208301526111828187610fe7565b90508181036040830152611196818661106b565b905081810360608301526111aa81856110bb565b905081810360808301526111be818461110b565b90509695505050505050565b600080fd5b600080fd5b7f4e487b7100000000000000000000000000000000000000000000000000000000600052604160045260246000fd5b61120c82610f8e565b810181811067ffffffffffffffff8211171561122b5761122a6111d4565b5b80604052505050565b600061123e610ec2565b905061124a8282611203565b919050565b600067ffffffffffffffff82111561126a576112696111d4565b5b61127382610f8e565b9050602081019050919050565b82818337600083830152505050565b60006112a261129d8461124f565b611234565b9050828152602081018484840111156112be576112bd6111cf565b5b6112c9848285611280565b509392505050565b600082601f8301126112e6576112e56111ca565b5b81356112f684826020860161128f565b91505092915050565b60008060008060008060c0878903121561131c5761131b610ecc565b5b600061132a89828a01610ef7565b965050602087013567ffffffffffffffff81111561134b5761134a610ed1565b5b61135789828a016112d1565b955050604087013567ffffffffffffffff81111561137857611377610ed1565b5b61138489828a016112d1565b945050606087013567ffffffffffffffff8111156113a5576113a4610ed1565b5b6113b189828a016112d1565b93505060806113c289828a01610ef7565b92505060a06113d389828a01610ef7565b9150509295509295509295565b600080600080608085870312156113fa576113f9610ecc565b5b600061140887828801610ef7565b945050602085013567ffffffffffffffff81111561142957611428610ed1565b5b611435878288016112d1565b935050604061144687828801610ef7565b925050606061145787828801610ef7565b91505092959194509250565b600060a08301600083015184820360008601526114808282610f9f565b9150506020830151848203602086015261149a8282610f9f565b915050604083015184820360408601526114b48282610f9f565b91505060608301516114c96060860182610fd8565b5060808301516114dc6080860182610fd8565b508091505092915050565b600060608301600083015184820360008601526115048282610f9f565b91505060208301516115196020860182610fd8565b50604083015161152c6040860182610fd8565b508091505092915050565b600060608301600083015184820360008601526115548282610f9f565b91505060208301516115696020860182610fd8565b50604083015161157c6040860182610fd8565b508091505092915050565b600060608301600083015184820360008601526115a48282610f9f565b91505060208301516115b96020860182610fd8565b5060408301516115cc6040860182610fd8565b508091505092915050565b600060a0830160008301516115ef6000860182610fd8565b50602083015184820360208601526116078282611463565b9150506040830151848203604086015261162182826114e7565b9150506060830151848203606086015261163b8282611537565b915050608083015184820360808601526116558282611587565b9150508091505092915050565b6000602082019050818103600083015261167c81846115d7565b905092915050565b7f4e487b7100000000000000000000000000000000000000000000000000000000600052602260045260246000fd5b600060028204905060018216806116cb57607f821691505b6020821081036116de576116dd611684565b5b50919050565b600082825260208201905092915050565b7f50726f6475637420616c72656164792065786973747300000000000000000000600082015250565b600061172b6016836116e4565b9150611736826116f5565b602082019050919050565b6000602082019050818103600083015261175a8161171e565b9050919050565b60008190508160005260206000209050919050565b60006020601f8301049050919050565b600082821b905092915050565b6000600883026117c37fffffffffffffffffffffffffffffffffffffffffffffffffffffffffffffffff82611786565b6117cd8683611786565b95508019841693508086168417925050509392505050565b6000819050919050565b600061180a61180561180084610ed6565b6117e5565b610ed6565b9050919050565b6000819050919050565b611824836117ef565b61183861183082611811565b848454611793565b825550505050565b600090565b61184d611840565b61185881848461181b565b505050565b5b8181101561187c57611871600082611845565b60018101905061185e565b5050565b601f8211156118c15761189281611761565b61189b84611776565b810160208510156118aa578190505b6118be6118b685611776565b83018261185d565b50505b505050565b600082821c905092915050565b60006118e4600019846008026118c6565b1980831691505092915050565b60006118fd83836118d3565b9150826002028217905092915050565b61191682610f48565b67ffffffffffffffff81111561192f5761192e6111d4565b5b61193982546116b3565b611944828285611880565b600060209050601f8311600181146119775760008415611965578287015190505b61196f85826118f1565b8655506119d7565b601f19841661198586611761565b60005b828110156119ad57848901518255600182019150602085019450602081019050611988565b868310156119ca57848901516119c6601f8916826118d3565b8355505b6001600288020188555050505b505050505050565b7f50726f6475637420637265617465642077697468204661726d65724461746100600082015250565b6000611a15601f836116e4565b9150611a20826119df565b602082019050919050565b6000604082019050611a406000830184610f39565b8181036020830152611a5181611a08565b905092915050565b7f50726f636573736f724461746120757064617465640000000000000000000000600082015250565b6000611a8f6015836116e4565b9150611a9a82611a59565b602082019050919050565b6000604082019050611aba6000830184610f39565b8181036020830152611acb81611a82565b905092915050565b7f4d616e7566616374757265724461746120757064617465640000000000000000600082015250565b6000611b096018836116e4565b9150611b1482611ad3565b602082019050919050565b6000604082019050611b346000830184610f39565b8181036020830152611b4581611afc565b905092915050565b7f4469737472696275746f72446174612075706461746564000000000000000000600082015250565b6000611b836017836116e4565b9150611b8e82611b4d565b602082019050919050565b6000604082019050611bae6000830184610f39565b8181036020830152611bbf81611b76565b90509291505056fea26469706673582212206f0b20722a644e48d7b5706b4aa51a6fd1ed8244e1ce503ee32e30c4d9a1bb7c64736f6c634300081b0033",
          "opcodes": "PUSH1 0x80 PUSH1 0x40 MSTORE CALLVALUE DUP1 ISZERO PUSH1 0xF JUMPI PUSH1 0x0 DUP1 REVERT JUMPDEST POP PUSH2 0x1BFD DUP1 PUSH2 0x1F PUSH1 0x0 CODECOPY PUSH1 0x0 RETURN INVALID PUSH1 0x80 PUSH1 0x40 MSTORE CALLVALUE DUP1 ISZERO PUSH2 0x10 JUMPI PUSH1 0x0 DUP1 REVERT JUMPDEST POP PUSH1 0x4 CALLDATASIZE LT PUSH2 0x62 JUMPI PUSH1 0x0 CALLDATALOAD PUSH1 0xE0 SHR DUP1 PUSH4 0x7ACC0B20 EQ PUSH2 0x67 JUMPI DUP1 PUSH4 0x8A4C747F EQ PUSH2 0x9B JUMPI DUP1 PUSH4 0xC691F37C EQ PUSH2 0xB7 JUMPI DUP1 PUSH4 0xD6D0BE9F EQ PUSH2 0xD3 JUMPI DUP1 PUSH4 0xED96C9E6 EQ PUSH2 0x103 JUMPI DUP1 PUSH4 0xEFFB3B19 EQ PUSH2 0x11F JUMPI JUMPDEST PUSH1 0x0 DUP1 REVERT JUMPDEST PUSH2 0x81 PUSH1 0x4 DUP1 CALLDATASIZE SUB DUP2 ADD SWAP1 PUSH2 0x7C SWAP2 SWAP1 PUSH2 0xF0C JUMP JUMPDEST PUSH2 0x13B JUMP JUMPDEST PUSH1 0x40 MLOAD PUSH2 0x92 SWAP6 SWAP5 SWAP4 SWAP3 SWAP2 SWAP1 PUSH2 0x115B JUMP JUMPDEST PUSH1 0x40 MLOAD DUP1 SWAP2 SUB SWAP1 RETURN JUMPDEST PUSH2 0xB5 PUSH1 0x4 DUP1 CALLDATASIZE SUB DUP2 ADD SWAP1 PUSH2 0xB0 SWAP2 SWAP1 PUSH2 0x12FF JUMP JUMPDEST PUSH2 0x555 JUMP JUMPDEST STOP JUMPDEST PUSH2 0xD1 PUSH1 0x4 DUP1 CALLDATASIZE SUB DUP2 ADD SWAP1 PUSH2 0xCC SWAP2 SWAP1 PUSH2 0x13E0 JUMP JUMPDEST PUSH2 0x7D9 JUMP JUMPDEST STOP JUMPDEST PUSH2 0xED PUSH1 0x4 DUP1 CALLDATASIZE SUB DUP2 ADD SWAP1 PUSH2 0xE8 SWAP2 SWAP1 PUSH2 0xF0C JUMP JUMPDEST PUSH2 0x873 JUMP JUMPDEST PUSH1 0x40 MLOAD PUSH2 0xFA SWAP2 SWAP1 PUSH2 0x1662 JUMP JUMPDEST PUSH1 0x40 MLOAD DUP1 SWAP2 SUB SWAP1 RETURN JUMPDEST PUSH2 0x11D PUSH1 0x4 DUP1 CALLDATASIZE SUB DUP2 ADD SWAP1 PUSH2 0x118 SWAP2 SWAP1 PUSH2 0x13E0 JUMP JUMPDEST PUSH2 0xCB5 JUMP JUMPDEST STOP JUMPDEST PUSH2 0x139 PUSH1 0x4 DUP1 CALLDATASIZE SUB DUP2 ADD SWAP1 PUSH2 0x134 SWAP2 SWAP1 PUSH2 0x13E0 JUMP JUMPDEST PUSH2 0xD4F JUMP JUMPDEST STOP JUMPDEST PUSH1 0x0 PUSH1 0x20 MSTORE DUP1 PUSH1 0x0 MSTORE PUSH1 0x40 PUSH1 0x0 KECCAK256 PUSH1 0x0 SWAP2 POP SWAP1 POP DUP1 PUSH1 0x0 ADD SLOAD SWAP1 DUP1 PUSH1 0x1 ADD PUSH1 0x40 MLOAD DUP1 PUSH1 0xA0 ADD PUSH1 0x40 MSTORE SWAP1 DUP2 PUSH1 0x0 DUP3 ADD DUP1 SLOAD PUSH2 0x174 SWAP1 PUSH2 0x16B3 JUMP JUMPDEST DUP1 PUSH1 0x1F ADD PUSH1 0x20 DUP1 SWAP2 DIV MUL PUSH1 0x20 ADD PUSH1 0x40 MLOAD SWAP1 DUP2 ADD PUSH1 0x40 MSTORE DUP1 SWAP3 SWAP2 SWAP1 DUP2 DUP2 MSTORE PUSH1 0x20 ADD DUP3 DUP1 SLOAD PUSH2 0x1A0 SWAP1 PUSH2 0x16B3 JUMP JUMPDEST DUP1 ISZERO PUSH2 0x1ED JUMPI DUP1 PUSH1 0x1F LT PUSH2 0x1C2 JUMPI PUSH2 0x100 DUP1 DUP4 SLOAD DIV MUL DUP4 MSTORE SWAP2 PUSH1 0x20 ADD SWAP2 PUSH2 0x1ED JUMP JUMPDEST DUP3 ADD SWAP2 SWAP1 PUSH1 0x0 MSTORE PUSH1 0x20 PUSH1 0x0 KECCAK256 SWAP1 JUMPDEST DUP2 SLOAD DUP2 MSTORE SWAP1 PUSH1 0x1 ADD SWAP1 PUSH1 0x20 ADD DUP1 DUP4 GT PUSH2 0x1D0 JUMPI DUP3 SWAP1 SUB PUSH1 0x1F AND DUP3 ADD SWAP2 JUMPDEST POP POP POP POP POP DUP2 MSTORE PUSH1 0x20 ADD PUSH1 0x1 DUP3 ADD DUP1 SLOAD PUSH2 0x206 SWAP1 PUSH2 0x16B3 JUMP JUMPDEST DUP1 PUSH1 0x1F ADD PUSH1 0x20 DUP1 SWAP2 DIV MUL PUSH1 0x20 ADD PUSH1 0x40 MLOAD SWAP1 DUP2 ADD PUSH1 0x40 MSTORE DUP1 SWAP3 SWAP2 SWAP1 DUP2 DUP2 MSTORE PUSH1 0x20 ADD DUP3 DUP1 SLOAD PUSH2 0x232 SWAP1 PUSH2 0x16B3 JUMP JUMPDEST DUP1 ISZERO PUSH2 0x27F JUMPI DUP1 PUSH1 0x1F LT PUSH2 0x254 JUMPI PUSH2 0x100 DUP1 DUP4 SLOAD DIV MUL DUP4 MSTORE SWAP2 PUSH1 0x20 ADD SWAP2 PUSH2 0x27F JUMP JUMPDEST DUP3 ADD SWAP2 SWAP1 PUSH1 0x0 MSTORE PUSH1 0x20 PUSH1 0x0 KECCAK256 SWAP1 JUMPDEST DUP2 SLOAD DUP2 MSTORE SWAP1 PUSH1 0x1 ADD SWAP1 PUSH1 0x20 ADD DUP1 DUP4 GT PUSH2 0x262 JUMPI DUP3 SWAP1 SUB PUSH1 0x1F AND DUP3 ADD SWAP2 JUMPDEST POP POP POP POP POP DUP2 MSTORE PUSH1 0x20 ADD PUSH1 0x2 DUP3 ADD DUP1 SLOAD PUSH2 0x298 SWAP1 PUSH2 0x16B3 JUMP JUMPDEST DUP1 PUSH1 0x1F ADD PUSH1 0x20 DUP1 SWAP2 DIV MUL PUSH1 0x20 ADD PUSH1 0x40 MLOAD SWAP1 DUP2 ADD PUSH1 0x40 MSTORE DUP1 SWAP3 SWAP2 SWAP1 DUP2 DUP2 MSTORE PUSH1 0x20 ADD DUP3 DUP1 SLOAD PUSH2 0x2C4 SWAP1 PUSH2 0x16B3 JUMP JUMPDEST DUP1 ISZERO PUSH2 0x311 JUMPI DUP1 PUSH1 0x1F LT PUSH2 0x2E6 JUMPI PUSH2 0x100 DUP1 DUP4 SLOAD DIV MUL DUP4 MSTORE SWAP2 PUSH1 0x20 ADD SWAP2 PUSH2 0x311 JUMP JUMPDEST DUP3 ADD SWAP2 SWAP1 PUSH1 0x0 MSTORE PUSH1 0x20 PUSH1 0x0 KECCAK256 SWAP1 JUMPDEST DUP2 SLOAD DUP2 MSTORE SWAP1 PUSH1 0x1 ADD SWAP1 PUSH1 0x20 ADD DUP1 DUP4 GT PUSH2 0x2F4 JUMPI DUP3 SWAP1 SUB PUSH1 0x1F AND DUP3 ADD SWAP2 JUMPDEST POP POP POP POP POP DUP2 MSTORE PUSH1 0x20 ADD PUSH1 0x3 DUP3 ADD SLOAD DUP2 MSTORE PUSH1 0x20 ADD PUSH1 0x4 DUP3 ADD SLOAD DUP2 MSTORE POP POP SWAP1 DUP1 PUSH1 0x6 ADD PUSH1 0x40 MLOAD DUP1 PUSH1 0x60 ADD PUSH1 0x40 MSTORE SWAP1 DUP2 PUSH1 0x0 DUP3 ADD DUP1 SLOAD PUSH2 0x34E SWAP1 PUSH2 0x16B3 JUMP JUMPDEST DUP1 PUSH1 0x1F ADD PUSH1 0x20 DUP1 SWAP2 DIV MUL PUSH1 0x20 ADD PUSH1 0x40 MLOAD SWAP1 DUP2 ADD PUSH1 0x40 MSTORE DUP1 SWAP3 SWAP2 SWAP1 DUP2 DUP2 MSTORE PUSH1 0x20 ADD DUP3 DUP1 SLOAD PUSH2 0x37A SWAP1 PUSH2 0x16B3 JUMP JUMPDEST DUP1 ISZERO PUSH2 0x3C7 JUMPI DUP1 PUSH1 0x1F LT PUSH2 0x39C JUMPI PUSH2 0x100 DUP1 DUP4 SLOAD DIV MUL DUP4 MSTORE SWAP2 PUSH1 0x20 ADD SWAP2 PUSH2 0x3C7 JUMP JUMPDEST DUP3 ADD SWAP2 SWAP1 PUSH1 0x0 MSTORE PUSH1 0x20 PUSH1 0x0 KECCAK256 SWAP1 JUMPDEST DUP2 SLOAD DUP2 MSTORE SWAP1 PUSH1 0x1 ADD SWAP1 PUSH1 0x20 ADD DUP1 DUP4 GT PUSH2 0x3AA JUMPI DUP3 SWAP1 SUB PUSH1 0x1F AND DUP3 ADD SWAP2 JUMPDEST POP POP POP POP POP DUP2 MSTORE PUSH1 0x20 ADD PUSH1 0x1 DUP3 ADD SLOAD DUP2 MSTORE PUSH1 0x20 ADD PUSH1 0x2 DUP3 ADD SLOAD DUP2 MSTORE POP POP SWAP1 DUP1 PUSH1 0x9 ADD PUSH1 0x40 MLOAD DUP1 PUSH1 0x60 ADD PUSH1 0x40 MSTORE SWAP1 DUP2 PUSH1 0x0 DUP3 ADD DUP1 SLOAD PUSH2 0x404 SWAP1 PUSH2 0x16B3 JUMP JUMPDEST DUP1 PUSH1 0x1F ADD PUSH1 0x20 DUP1 SWAP2 DIV MUL PUSH1 0x20 ADD PUSH1 0x40 MLOAD SWAP1 DUP2 ADD PUSH1 0x40 MSTORE DUP1 SWAP3 SWAP2 SWAP1 DUP2 DUP2 MSTORE PUSH1 0x20 ADD DUP3 DUP1 SLOAD PUSH2 0x430 SWAP1 PUSH2 0x16B3 JUMP JUMPDEST DUP1 ISZERO PUSH2 0x47D JUMPI DUP1 PUSH1 0x1F LT PUSH2 0x452 JUMPI PUSH2 0x100 DUP1 DUP4 SLOAD DIV MUL DUP4 MSTORE SWAP2 PUSH1 0x20 ADD SWAP2 PUSH2 0x47D JUMP JUMPDEST DUP3 ADD SWAP2 SWAP1 PUSH1 0x0 MSTORE PUSH1 0x20 PUSH1 0x0 KECCAK256 SWAP1 JUMPDEST DUP2 SLOAD DUP2 MSTORE SWAP1 PUSH1 0x1 ADD SWAP1 PUSH1 0x20 ADD DUP1 DUP4 GT PUSH2 0x460 JUMPI DUP3 SWAP1 SUB PUSH1 0x1F AND DUP3 ADD SWAP2 JUMPDEST POP POP POP POP POP DUP2 MSTORE PUSH1 0x20 ADD PUSH1 0x1 DUP3 ADD SLOAD DUP2 MSTORE PUSH1 0x20 ADD PUSH1 0x2 DUP3 ADD SLOAD DUP2 MSTORE POP POP SWAP1 DUP1 PUSH1 0xC ADD PUSH1 0x40 MLOAD DUP1 PUSH1 0x60 ADD PUSH1 0x40 MSTORE SWAP1 DUP2 PUSH1 0x0 DUP3 ADD DUP1 SLOAD PUSH2 0x4BA SWAP1 PUSH2 0x16B3 JUMP JUMPDEST DUP1 PUSH1 0x1F ADD PUSH1 0x20 DUP1 SWAP2 DIV MUL PUSH1 0x20 ADD PUSH1 0x40 MLOAD SWAP1 DUP2 ADD PUSH1 0x40 MSTORE DUP1 SWAP3 SWAP2 SWAP1 DUP2 DUP2 MSTORE PUSH1 0x20 ADD DUP3 DUP1 SLOAD PUSH2 0x4E6 SWAP1 PUSH2 0x16B3 JUMP JUMPDEST DUP1 ISZERO PUSH2 0x533 JUMPI DUP1 PUSH1 0x1F LT PUSH2 0x508 JUMPI PUSH2 0x100 DUP1 DUP4 SLOAD DIV MUL DUP4 MSTORE SWAP2 PUSH1 0x20 ADD SWAP2 PUSH2 0x533 JUMP JUMPDEST DUP3 ADD SWAP2 SWAP1 PUSH1 0x0 MSTORE PUSH1 0x20 PUSH1 0x0 KECCAK256 SWAP1 JUMPDEST DUP2 SLOAD DUP2 MSTORE SWAP1 PUSH1 0x1 ADD SWAP1 PUSH1 0x20 ADD DUP1 DUP4 GT PUSH2 0x516 JUMPI DUP3 SWAP1 SUB PUSH1 0x1F AND DUP3 ADD SWAP2 JUMPDEST POP POP POP POP POP DUP2 MSTORE PUSH1 0x20 ADD PUSH1 0x1 DUP3 ADD SLOAD DUP2 MSTORE PUSH1 0x20 ADD PUSH1 0x2 DUP3 ADD SLOAD DUP2 MSTORE POP POP SWAP1 POP DUP6 JUMP JUMPDEST PUSH1 0x0 DUP1 PUSH1 0x0 DUP9 DUP2 MSTORE PUSH1 0x20 ADD SWAP1 DUP2 MSTORE PUSH1 0x20 ADD PUSH1 0x0 KECCAK256 PUSH1 0x0 ADD SLOAD EQ PUSH2 0x5AD JUMPI PUSH1 0x40 MLOAD PUSH32 0x8C379A000000000000000000000000000000000000000000000000000000000 DUP2 MSTORE PUSH1 0x4 ADD PUSH2 0x5A4 SWAP1 PUSH2 0x1741 JUMP JUMPDEST PUSH1 0x40 MLOAD DUP1 SWAP2 SUB SWAP1 REVERT JUMPDEST PUSH1 0x40 MLOAD DUP1 PUSH1 0xA0 ADD PUSH1 0x40 MSTORE DUP1 DUP8 DUP2 MSTORE PUSH1 0x20 ADD PUSH1 0x40 MLOAD DUP1 PUSH1 0xA0 ADD PUSH1 0x40 MSTORE DUP1 DUP9 DUP2 MSTORE PUSH1 0x20 ADD DUP8 DUP2 MSTORE PUSH1 0x20 ADD DUP7 DUP2 MSTORE PUSH1 0x20 ADD DUP6 DUP2 MSTORE PUSH1 0x20 ADD DUP5 DUP2 MSTORE POP DUP2 MSTORE PUSH1 0x20 ADD PUSH1 0x40 MLOAD DUP1 PUSH1 0x60 ADD PUSH1 0x40 MSTORE DUP1 PUSH1 0x40 MLOAD DUP1 PUSH1 0x20 ADD PUSH1 0x40 MSTORE DUP1 PUSH1 0x0 DUP2 MSTORE POP DUP2 MSTORE PUSH1 0x20 ADD PUSH1 0x0 DUP2 MSTORE PUSH1 0x20 ADD PUSH1 0x0 DUP2 MSTORE POP DUP2 MSTORE PUSH1 0x20 ADD PUSH1 0x40 MLOAD DUP1 PUSH1 0x60 ADD PUSH1 0x40 MSTORE DUP1 PUSH1 0x40 MLOAD DUP1 PUSH1 0x20 ADD PUSH1 0x40 MSTORE DUP1 PUSH1 0x0 DUP2 MSTORE POP DUP2 MSTORE PUSH1 0x20 ADD PUSH1 0x0 DUP2 MSTORE PUSH1 0x20 ADD PUSH1 0x0 DUP2 MSTORE POP DUP2 MSTORE PUSH1 0x20 ADD PUSH1 0x40 MLOAD DUP1 PUSH1 0x60 ADD PUSH1 0x40 MSTORE DUP1 PUSH1 0x40 MLOAD DUP1 PUSH1 0x20 ADD PUSH1 0x40 MSTORE DUP1 PUSH1 0x0 DUP2 MSTORE POP DUP2 MSTORE PUSH1 0x20 ADD PUSH1 0x0 DUP2 MSTORE PUSH1 0x20 ADD PUSH1 0x0 DUP2 MSTORE POP DUP2 MSTORE POP PUSH1 0x0 DUP1 DUP9 DUP2 MSTORE PUSH1 0x20 ADD SWAP1 DUP2 MSTORE PUSH1 0x20 ADD PUSH1 0x0 KECCAK256 PUSH1 0x0 DUP3 ADD MLOAD DUP2 PUSH1 0x0 ADD SSTORE PUSH1 0x20 DUP3 ADD MLOAD DUP2 PUSH1 0x1 ADD PUSH1 0x0 DUP3 ADD MLOAD DUP2 PUSH1 0x0 ADD SWAP1 DUP2 PUSH2 0x6B5 SWAP2 SWAP1 PUSH2 0x190D JUMP JUMPDEST POP PUSH1 0x20 DUP3 ADD MLOAD DUP2 PUSH1 0x1 ADD SWAP1 DUP2 PUSH2 0x6CB SWAP2 SWAP1 PUSH2 0x190D JUMP JUMPDEST POP PUSH1 0x40 DUP3 ADD MLOAD DUP2 PUSH1 0x2 ADD SWAP1 DUP2 PUSH2 0x6E1 SWAP2 SWAP1 PUSH2 0x190D JUMP JUMPDEST POP PUSH1 0x60 DUP3 ADD MLOAD DUP2 PUSH1 0x3 ADD SSTORE PUSH1 0x80 DUP3 ADD MLOAD DUP2 PUSH1 0x4 ADD SSTORE POP POP PUSH1 0x40 DUP3 ADD MLOAD DUP2 PUSH1 0x6 ADD PUSH1 0x0 DUP3 ADD MLOAD DUP2 PUSH1 0x0 ADD SWAP1 DUP2 PUSH2 0x716 SWAP2 SWAP1 PUSH2 0x190D JUMP JUMPDEST POP PUSH1 0x20 DUP3 ADD MLOAD DUP2 PUSH1 0x1 ADD SSTORE PUSH1 0x40 DUP3 ADD MLOAD DUP2 PUSH1 0x2 ADD SSTORE POP POP PUSH1 0x60 DUP3 ADD MLOAD DUP2 PUSH1 0x9 ADD PUSH1 0x0 DUP3 ADD MLOAD DUP2 PUSH1 0x0 ADD SWAP1 DUP2 PUSH2 0x74B SWAP2 SWAP1 PUSH2 0x190D JUMP JUMPDEST POP PUSH1 0x20 DUP3 ADD MLOAD DUP2 PUSH1 0x1 ADD SSTORE PUSH1 0x40 DUP3 ADD MLOAD DUP2 PUSH1 0x2 ADD SSTORE POP POP PUSH1 0x80 DUP3 ADD MLOAD DUP2 PUSH1 0xC ADD PUSH1 0x0 DUP3 ADD MLOAD DUP2 PUSH1 0x0 ADD SWAP1 DUP2 PUSH2 0x780 SWAP2 SWAP1 PUSH2 0x190D JUMP JUMPDEST POP PUSH1 0x20 DUP3 ADD MLOAD DUP2 PUSH1 0x1 ADD SSTORE PUSH1 0x40 DUP3 ADD MLOAD DUP2 PUSH1 0x2 ADD SSTORE POP POP SWAP1 POP POP PUSH32 0x259101DE1F87B04B9EE0332CE5E3CC508014004BF283424AEAD6CD8692F5CF98 DUP7 PUSH1 0x40 MLOAD PUSH2 0x7C9 SWAP2 SWAP1 PUSH2 0x1A2B JUMP JUMPDEST PUSH1 0x40 MLOAD DUP1 SWAP2 SUB SWAP1 LOG1 POP POP POP POP POP POP JUMP JUMPDEST PUSH1 0x40 MLOAD DUP1 PUSH1 0x60 ADD PUSH1 0x40 MSTORE DUP1 DUP5 DUP2 MSTORE PUSH1 0x20 ADD DUP4 DUP2 MSTORE PUSH1 0x20 ADD DUP3 DUP2 MSTORE POP PUSH1 0x0 DUP1 DUP7 DUP2 MSTORE PUSH1 0x20 ADD SWAP1 DUP2 MSTORE PUSH1 0x20 ADD PUSH1 0x0 KECCAK256 PUSH1 0x6 ADD PUSH1 0x0 DUP3 ADD MLOAD DUP2 PUSH1 0x0 ADD SWAP1 DUP2 PUSH2 0x81E SWAP2 SWAP1 PUSH2 0x190D JUMP JUMPDEST POP PUSH1 0x20 DUP3 ADD MLOAD DUP2 PUSH1 0x1 ADD SSTORE PUSH1 0x40 DUP3 ADD MLOAD DUP2 PUSH1 0x2 ADD SSTORE SWAP1 POP POP PUSH32 0xCCCDBD5F0525E1F44403BDAA0D1C795ABC13B4CA98A768D213B6F997F471B421 DUP5 PUSH1 0x40 MLOAD PUSH2 0x865 SWAP2 SWAP1 PUSH2 0x1AA5 JUMP JUMPDEST PUSH1 0x40 MLOAD DUP1 SWAP2 SUB SWAP1 LOG1 POP POP POP POP JUMP JUMPDEST PUSH2 0x87B PUSH2 0xDE9 JUMP JUMPDEST PUSH1 0x0 DUP1 DUP4 DUP2 MSTORE PUSH1 0x20 ADD SWAP1 DUP2 MSTORE PUSH1 0x20 ADD PUSH1 0x0 KECCAK256 PUSH1 0x40 MLOAD DUP1 PUSH1 0xA0 ADD PUSH1 0x40 MSTORE SWAP1 DUP2 PUSH1 0x0 DUP3 ADD SLOAD DUP2 MSTORE PUSH1 0x20 ADD PUSH1 0x1 DUP3 ADD PUSH1 0x40 MLOAD DUP1 PUSH1 0xA0 ADD PUSH1 0x40 MSTORE SWAP1 DUP2 PUSH1 0x0 DUP3 ADD DUP1 SLOAD PUSH2 0x8C2 SWAP1 PUSH2 0x16B3 JUMP JUMPDEST DUP1 PUSH1 0x1F ADD PUSH1 0x20 DUP1 SWAP2 DIV MUL PUSH1 0x20 ADD PUSH1 0x40 MLOAD SWAP1 DUP2 ADD PUSH1 0x40 MSTORE DUP1 SWAP3 SWAP2 SWAP1 DUP2 DUP2 MSTORE PUSH1 0x20 ADD DUP3 DUP1 SLOAD PUSH2 0x8EE SWAP1 PUSH2 0x16B3 JUMP JUMPDEST DUP1 ISZERO PUSH2 0x93B JUMPI DUP1 PUSH1 0x1F LT PUSH2 0x910 JUMPI PUSH2 0x100 DUP1 DUP4 SLOAD DIV MUL DUP4 MSTORE SWAP2 PUSH1 0x20 ADD SWAP2 PUSH2 0x93B JUMP JUMPDEST DUP3 ADD SWAP2 SWAP1 PUSH1 0x0 MSTORE PUSH1 0x20 PUSH1 0x0 KECCAK256 SWAP1 JUMPDEST DUP2 SLOAD DUP2 MSTORE SWAP1 PUSH1 0x1 ADD SWAP1 PUSH1 0x20 ADD DUP1 DUP4 GT PUSH2 0x91E JUMPI DUP3 SWAP1 SUB PUSH1 0x1F AND DUP3 ADD SWAP2 JUMPDEST POP POP POP POP POP DUP2 MSTORE PUSH1 0x20 ADD PUSH1 0x1 DUP3 ADD DUP1 SLOAD PUSH2 0x954 SWAP1 PUSH2 0x16B3 JUMP JUMPDEST DUP1 PUSH1 0x1F ADD PUSH1 0x20 DUP1 SWAP2 DIV MUL PUSH1 0x20 ADD PUSH1 0x40 MLOAD SWAP1 DUP2 ADD PUSH1 0x40 MSTORE DUP1 SWAP3 SWAP2 SWAP1 DUP2 DUP2 MSTORE PUSH1 0x20 ADD DUP3 DUP1 SLOAD PUSH2 0x980 SWAP1 PUSH2 0x16B3 JUMP JUMPDEST DUP1 ISZERO PUSH2 0x9CD JUMPI DUP1 PUSH1 0x1F LT PUSH2 0x9A2 JUMPI PUSH2 0x100 DUP1 DUP4 SLOAD DIV MUL DUP4 MSTORE SWAP2 PUSH1 0x20 ADD SWAP2 PUSH2 0x9CD JUMP JUMPDEST DUP3 ADD SWAP2 SWAP1 PUSH1 0x0 MSTORE PUSH1 0x20 PUSH1 0x0 KECCAK256 SWAP1 JUMPDEST DUP2 SLOAD DUP2 MSTORE SWAP1 PUSH1 0x1 ADD SWAP1 PUSH1 0x20 ADD DUP1 DUP4 GT PUSH2 0x9B0 JUMPI DUP3 SWAP1 SUB PUSH1 0x1F AND DUP3 ADD SWAP2 JUMPDEST POP POP POP POP POP DUP2 MSTORE PUSH1 0x20 ADD PUSH1 0x2 DUP3 ADD DUP1 SLOAD PUSH2 0x9E6 SWAP1 PUSH2 0x16B3 JUMP JUMPDEST DUP1 PUSH1 0x1F ADD PUSH1 0x20 DUP1 SWAP2 DIV MUL PUSH1 0x20 ADD PUSH1 0x40 MLOAD SWAP1 DUP2 ADD PUSH1 0x40 MSTORE DUP1 SWAP3 SWAP2 SWAP1 DUP2 DUP2 MSTORE PUSH1 0x20 ADD DUP3 DUP1 SLOAD PUSH2 0xA12 SWAP1 PUSH2 0x16B3 JUMP JUMPDEST DUP1 ISZERO PUSH2 0xA5F JUMPI DUP1 PUSH1 0x1F LT PUSH2 0xA34 JUMPI PUSH2 0x100 DUP1 DUP4 SLOAD DIV MUL DUP4 MSTORE SWAP2 PUSH1 0x20 ADD SWAP2 PUSH2 0xA5F JUMP JUMPDEST DUP3 ADD SWAP2 SWAP1 PUSH1 0x0 MSTORE PUSH1 0x20 PUSH1 0x0 KECCAK256 SWAP1 JUMPDEST DUP2 SLOAD DUP2 MSTORE SWAP1 PUSH1 0x1 ADD SWAP1 PUSH1 0x20 ADD DUP1 DUP4 GT PUSH2 0xA42 JUMPI DUP3 SWAP1 SUB PUSH1 0x1F AND DUP3 ADD SWAP2 JUMPDEST POP POP POP POP POP DUP2 MSTORE PUSH1 0x20 ADD PUSH1 0x3 DUP3 ADD SLOAD DUP2 MSTORE PUSH1 0x20 ADD PUSH1 0x4 DUP3 ADD SLOAD DUP2 MSTORE POP POP DUP2 MSTORE PUSH1 0x20 ADD PUSH1 0x6 DUP3 ADD PUSH1 0x40 MLOAD DUP1 PUSH1 0x60 ADD PUSH1 0x40 MSTORE SWAP1 DUP2 PUSH1 0x0 DUP3 ADD DUP1 SLOAD PUSH2 0xAA0 SWAP1 PUSH2 0x16B3 JUMP JUMPDEST DUP1 PUSH1 0x1F ADD PUSH1 0x20 DUP1 SWAP2 DIV MUL PUSH1 0x20 ADD PUSH1 0x40 MLOAD SWAP1 DUP2 ADD PUSH1 0x40 MSTORE DUP1 SWAP3 SWAP2 SWAP1 DUP2 DUP2 MSTORE PUSH1 0x20 ADD DUP3 DUP1 SLOAD PUSH2 0xACC SWAP1 PUSH2 0x16B3 JUMP JUMPDEST DUP1 ISZERO PUSH2 0xB19 JUMPI DUP1 PUSH1 0x1F LT PUSH2 0xAEE JUMPI PUSH2 0x100 DUP1 DUP4 SLOAD DIV MUL DUP4 MSTORE SWAP2 PUSH1 0x20 ADD SWAP2 PUSH2 0xB19 JUMP JUMPDEST DUP3 ADD SWAP2 SWAP1 PUSH1 0x0 MSTORE PUSH1 0x20 PUSH1 0x0 KECCAK256 SWAP1 JUMPDEST DUP2 SLOAD DUP2 MSTORE SWAP1 PUSH1 0x1 ADD SWAP1 PUSH1 0x20 ADD DUP1 DUP4 GT PUSH2 0xAFC JUMPI DUP3 SWAP1 SUB PUSH1 0x1F AND DUP3 ADD SWAP2 JUMPDEST POP POP POP POP POP DUP2 MSTORE PUSH1 0x20 ADD PUSH1 0x1 DUP3 ADD SLOAD DUP2 MSTORE PUSH1 0x20 ADD PUSH1 0x2 DUP3 ADD SLOAD DUP2 MSTORE POP POP DUP2 MSTORE PUSH1 0x20 ADD PUSH1 0x9 DUP3 ADD PUSH1 0x40 MLOAD DUP1 PUSH1 0x60 ADD PUSH1 0x40 MSTORE SWAP1 DUP2 PUSH1 0x0 DUP3 ADD DUP1 SLOAD PUSH2 0xB5A SWAP1 PUSH2 0x16B3 JUMP JUMPDEST DUP1 PUSH1 0x1F ADD PUSH1 0x20 DUP1 SWAP2 DIV MUL PUSH1 0x20 ADD PUSH1 0x40 MLOAD SWAP1 DUP2 ADD PUSH1 0x40 MSTORE DUP1 SWAP3 SWAP2 SWAP1 DUP2 DUP2 MSTORE PUSH1 0x20 ADD DUP3 DUP1 SLOAD PUSH2 0xB86 SWAP1 PUSH2 0x16B3 JUMP JUMPDEST DUP1 ISZERO PUSH2 0xBD3 JUMPI DUP1 PUSH1 0x1F LT PUSH2 0xBA8 JUMPI PUSH2 0x100 DUP1 DUP4 SLOAD DIV MUL DUP4 MSTORE SWAP2 PUSH1 0x20 ADD SWAP2 PUSH2 0xBD3 JUMP JUMPDEST DUP3 ADD SWAP2 SWAP1 PUSH1 0x0 MSTORE PUSH1 0x20 PUSH1 0x0 KECCAK256 SWAP1 JUMPDEST DUP2 SLOAD DUP2 MSTORE SWAP1 PUSH1 0x1 ADD SWAP1 PUSH1 0x20 ADD DUP1 DUP4 GT PUSH2 0xBB6 JUMPI DUP3 SWAP1 SUB PUSH1 0x1F AND DUP3 ADD SWAP2 JUMPDEST POP POP POP POP POP DUP2 MSTORE PUSH1 0x20 ADD PUSH1 0x1 DUP3 ADD SLOAD DUP2 MSTORE PUSH1 0x20 ADD PUSH1 0x2 DUP3 ADD SLOAD DUP2 MSTORE POP POP DUP2 MSTORE PUSH1 0x20 ADD PUSH1 0xC DUP3 ADD PUSH1 0x40 MLOAD DUP1 PUSH1 0x60 ADD PUSH1 0x40 MSTORE SWAP1 DUP2 PUSH1 0x0 DUP3 ADD DUP1 SLOAD PUSH2 0xC14 SWAP1 PUSH2 0x16B3 JUMP JUMPDEST DUP1 PUSH1 0x1F ADD PUSH1 0x20 DUP1 SWAP2 DIV MUL PUSH1 0x20 ADD PUSH1 0x40 MLOAD SWAP1 DUP2 ADD PUSH1 0x40 MSTORE DUP1 SWAP3 SWAP2 SWAP1 DUP2 DUP2 MSTORE PUSH1 0x20 ADD DUP3 DUP1 SLOAD PUSH2 0xC40 SWAP1 PUSH2 0x16B3 JUMP JUMPDEST DUP1 ISZERO PUSH2 0xC8D JUMPI DUP1 PUSH1 0x1F LT PUSH2 0xC62 JUMPI PUSH2 0x100 DUP1 DUP4 SLOAD DIV MUL DUP4 MSTORE SWAP2 PUSH1 0x20 ADD SWAP2 PUSH2 0xC8D JUMP JUMPDEST DUP3 ADD SWAP2 SWAP1 PUSH1 0x0 MSTORE PUSH1 0x20 PUSH1 0x0 KECCAK256 SWAP1 JUMPDEST DUP2 SLOAD DUP2 MSTORE SWAP1 PUSH1 0x1 ADD SWAP1 PUSH1 0x20 ADD DUP1 DUP4 GT PUSH2 0xC70 JUMPI DUP3 SWAP1 SUB PUSH1 0x1F AND DUP3 ADD SWAP2 JUMPDEST POP POP POP POP POP DUP2 MSTORE PUSH1 0x20 ADD PUSH1 0x1 DUP3 ADD SLOAD DUP2 MSTORE PUSH1 0x20 ADD PUSH1 0x2 DUP3 ADD SLOAD DUP2 MSTORE POP POP DUP2 MSTORE POP POP SWAP1 POP SWAP2 SWAP1 POP JUMP JUMPDEST PUSH1 0x40 MLOAD DUP1 PUSH1 0x60 ADD PUSH1 0x40 MSTORE DUP1 DUP5 DUP2 MSTORE PUSH1 0x20 ADD DUP4 DUP2 MSTORE PUSH1 0x20 ADD DUP3 DUP2 MSTORE POP PUSH1 0x0 DUP1 DUP7 DUP2 MSTORE PUSH1 0x20 ADD SWAP1 DUP2 MSTORE PUSH1 0x20 ADD PUSH1 0x0 KECCAK256 PUSH1 0x9 ADD PUSH1 0x0 DUP3 ADD MLOAD DUP2 PUSH1 0x0 ADD SWAP1 DUP2 PUSH2 0xCFA SWAP2 SWAP1 PUSH2 0x190D JUMP JUMPDEST POP PUSH1 0x20 DUP3 ADD MLOAD DUP2 PUSH1 0x1 ADD SSTORE PUSH1 0x40 DUP3 ADD MLOAD DUP2 PUSH1 0x2 ADD SSTORE SWAP1 POP POP PUSH32 0x42729A3B31505FC0605ADD0CA32A9D07B77F8D4FE8D64EB4797B782DD9A1490E DUP5 PUSH1 0x40 MLOAD PUSH2 0xD41 SWAP2 SWAP1 PUSH2 0x1B1F JUMP JUMPDEST PUSH1 0x40 MLOAD DUP1 SWAP2 SUB SWAP1 LOG1 POP POP POP POP JUMP JUMPDEST PUSH1 0x40 MLOAD DUP1 PUSH1 0x60 ADD PUSH1 0x40 MSTORE DUP1 DUP5 DUP2 MSTORE PUSH1 0x20 ADD DUP4 DUP2 MSTORE PUSH1 0x20 ADD DUP3 DUP2 MSTORE POP PUSH1 0x0 DUP1 DUP7 DUP2 MSTORE PUSH1 0x20 ADD SWAP1 DUP2 MSTORE PUSH1 0x20 ADD PUSH1 0x0 KECCAK256 PUSH1 0xC ADD PUSH1 0x0 DUP3 ADD MLOAD DUP2 PUSH1 0x0 ADD SWAP1 DUP2 PUSH2 0xD94 SWAP2 SWAP1 PUSH2 0x190D JUMP JUMPDEST POP PUSH1 0x20 DUP3 ADD MLOAD DUP2 PUSH1 0x1 ADD SSTORE PUSH1 0x40 DUP3 ADD MLOAD DUP2 PUSH1 0x2 ADD SSTORE SWAP1 POP POP PUSH32 0x8A9576551BF770E0B49E5EA82E299ECB78E8342BFAB40297667A58CE8FA776DF DUP5 PUSH1 0x40 MLOAD PUSH2 0xDDB SWAP2 SWAP1 PUSH2 0x1B99 JUMP JUMPDEST PUSH1 0x40 MLOAD DUP1 SWAP2 SUB SWAP1 LOG1 POP POP POP POP JUMP JUMPDEST PUSH1 0x40 MLOAD DUP1 PUSH1 0xA0 ADD PUSH1 0x40 MSTORE DUP1 PUSH1 0x0 DUP2 MSTORE PUSH1 0x20 ADD PUSH2 0xE03 PUSH2 0xE30 JUMP JUMPDEST DUP2 MSTORE PUSH1 0x20 ADD PUSH2 0xE10 PUSH2 0xE5F JUMP JUMPDEST DUP2 MSTORE PUSH1 0x20 ADD PUSH2 0xE1D PUSH2 0xE80 JUMP JUMPDEST DUP2 MSTORE PUSH1 0x20 ADD PUSH2 0xE2A PUSH2 0xEA1 JUMP JUMPDEST DUP2 MSTORE POP SWAP1 JUMP JUMPDEST PUSH1 0x40 MLOAD DUP1 PUSH1 0xA0 ADD PUSH1 0x40 MSTORE DUP1 PUSH1 0x60 DUP2 MSTORE PUSH1 0x20 ADD PUSH1 0x60 DUP2 MSTORE PUSH1 0x20 ADD PUSH1 0x60 DUP2 MSTORE PUSH1 0x20 ADD PUSH1 0x0 DUP2 MSTORE PUSH1 0x20 ADD PUSH1 0x0 DUP2 MSTORE POP SWAP1 JUMP JUMPDEST PUSH1 0x40 MLOAD DUP1 PUSH1 0x60 ADD PUSH1 0x40 MSTORE DUP1 PUSH1 0x60 DUP2 MSTORE PUSH1 0x20 ADD PUSH1 0x0 DUP2 MSTORE PUSH1 0x20 ADD PUSH1 0x0 DUP2 MSTORE POP SWAP1 JUMP JUMPDEST PUSH1 0x40 MLOAD DUP1 PUSH1 0x60 ADD PUSH1 0x40 MSTORE DUP1 PUSH1 0x60 DUP2 MSTORE PUSH1 0x20 ADD PUSH1 0x0 DUP2 MSTORE PUSH1 0x20 ADD PUSH1 0x0 DUP2 MSTORE POP SWAP1 JUMP JUMPDEST PUSH1 0x40 MLOAD DUP1 PUSH1 0x60 ADD PUSH1 0x40 MSTORE DUP1 PUSH1 0x60 DUP2 MSTORE PUSH1 0x20 ADD PUSH1 0x0 DUP2 MSTORE PUSH1 0x20 ADD PUSH1 0x0 DUP2 MSTORE POP SWAP1 JUMP JUMPDEST PUSH1 0x0 PUSH1 0x40 MLOAD SWAP1 POP SWAP1 JUMP JUMPDEST PUSH1 0x0 DUP1 REVERT JUMPDEST PUSH1 0x0 DUP1 REVERT JUMPDEST PUSH1 0x0 DUP2 SWAP1 POP SWAP2 SWAP1 POP JUMP JUMPDEST PUSH2 0xEE9 DUP2 PUSH2 0xED6 JUMP JUMPDEST DUP2 EQ PUSH2 0xEF4 JUMPI PUSH1 0x0 DUP1 REVERT JUMPDEST POP JUMP JUMPDEST PUSH1 0x0 DUP2 CALLDATALOAD SWAP1 POP PUSH2 0xF06 DUP2 PUSH2 0xEE0 JUMP JUMPDEST SWAP3 SWAP2 POP POP JUMP JUMPDEST PUSH1 0x0 PUSH1 0x20 DUP3 DUP5 SUB SLT ISZERO PUSH2 0xF22 JUMPI PUSH2 0xF21 PUSH2 0xECC JUMP JUMPDEST JUMPDEST PUSH1 0x0 PUSH2 0xF30 DUP5 DUP3 DUP6 ADD PUSH2 0xEF7 JUMP JUMPDEST SWAP2 POP POP SWAP3 SWAP2 POP POP JUMP JUMPDEST PUSH2 0xF42 DUP2 PUSH2 0xED6 JUMP JUMPDEST DUP3 MSTORE POP POP JUMP JUMPDEST PUSH1 0x0 DUP2 MLOAD SWAP1 POP SWAP2 SWAP1 POP JUMP JUMPDEST PUSH1 0x0 DUP3 DUP3 MSTORE PUSH1 0x20 DUP3 ADD SWAP1 POP SWAP3 SWAP2 POP POP JUMP JUMPDEST PUSH1 0x0 JUMPDEST DUP4 DUP2 LT ISZERO PUSH2 0xF82 JUMPI DUP1 DUP3 ADD MLOAD DUP2 DUP5 ADD MSTORE PUSH1 0x20 DUP2 ADD SWAP1 POP PUSH2 0xF67 JUMP JUMPDEST PUSH1 0x0 DUP5 DUP5 ADD MSTORE POP POP POP POP JUMP JUMPDEST PUSH1 0x0 PUSH1 0x1F NOT PUSH1 0x1F DUP4 ADD AND SWAP1 POP SWAP2 SWAP1 POP JUMP JUMPDEST PUSH1 0x0 PUSH2 0xFAA DUP3 PUSH2 0xF48 JUMP JUMPDEST PUSH2 0xFB4 DUP2 DUP6 PUSH2 0xF53 JUMP JUMPDEST SWAP4 POP PUSH2 0xFC4 DUP2 DUP6 PUSH1 0x20 DUP7 ADD PUSH2 0xF64 JUMP JUMPDEST PUSH2 0xFCD DUP2 PUSH2 0xF8E JUMP JUMPDEST DUP5 ADD SWAP2 POP POP SWAP3 SWAP2 POP POP JUMP JUMPDEST PUSH2 0xFE1 DUP2 PUSH2 0xED6 JUMP JUMPDEST DUP3 MSTORE POP POP JUMP JUMPDEST PUSH1 0x0 PUSH1 0xA0 DUP4 ADD PUSH1 0x0 DUP4 ADD MLOAD DUP5 DUP3 SUB PUSH1 0x0 DUP7 ADD MSTORE PUSH2 0x1004 DUP3 DUP3 PUSH2 0xF9F JUMP JUMPDEST SWAP2 POP POP PUSH1 0x20 DUP4 ADD MLOAD DUP5 DUP3 SUB PUSH1 0x20 DUP7 ADD MSTORE PUSH2 0x101E DUP3 DUP3 PUSH2 0xF9F JUMP JUMPDEST SWAP2 POP POP PUSH1 0x40 DUP4 ADD MLOAD DUP5 DUP3 SUB PUSH1 0x40 DUP7 ADD MSTORE PUSH2 0x1038 DUP3 DUP3 PUSH2 0xF9F JUMP JUMPDEST SWAP2 POP POP PUSH1 0x60 DUP4 ADD MLOAD PUSH2 0x104D PUSH1 0x60 DUP7 ADD DUP3 PUSH2 0xFD8 JUMP JUMPDEST POP PUSH1 0x80 DUP4 ADD MLOAD PUSH2 0x1060 PUSH1 0x80 DUP7 ADD DUP3 PUSH2 0xFD8 JUMP JUMPDEST POP DUP1 SWAP2 POP POP SWAP3 SWAP2 POP POP JUMP JUMPDEST PUSH1 0x0 PUSH1 0x60 DUP4 ADD PUSH1 0x0 DUP4 ADD MLOAD DUP5 DUP3 SUB PUSH1 0x0 DUP7 ADD MSTORE PUSH2 0x1088 DUP3 DUP3 PUSH2 0xF9F JUMP JUMPDEST SWAP2 POP POP PUSH1 0x20 DUP4 ADD MLOAD PUSH2 0x109D PUSH1 0x20 DUP7 ADD DUP3 PUSH2 0xFD8 JUMP JUMPDEST POP PUSH1 0x40 DUP4 ADD MLOAD PUSH2 0x10B0 PUSH1 0x40 DUP7 ADD DUP3 PUSH2 0xFD8 JUMP JUMPDEST POP DUP1 SWAP2 POP POP SWAP3 SWAP2 POP POP JUMP JUMPDEST PUSH1 0x0 PUSH1 0x60 DUP4 ADD PUSH1 0x0 DUP4 ADD MLOAD DUP5 DUP3 SUB PUSH1 0x0 DUP7 ADD MSTORE PUSH2 0x10D8 DUP3 DUP3 PUSH2 0xF9F JUMP JUMPDEST SWAP2 POP POP PUSH1 0x20 DUP4 ADD MLOAD PUSH2 0x10ED PUSH1 0x20 DUP7 ADD DUP3 PUSH2 0xFD8 JUMP JUMPDEST POP PUSH1 0x40 DUP4 ADD MLOAD PUSH2 0x1100 PUSH1 0x40 DUP7 ADD DUP3 PUSH2 0xFD8 JUMP JUMPDEST POP DUP1 SWAP2 POP POP SWAP3 SWAP2 POP POP JUMP JUMPDEST PUSH1 0x0 PUSH1 0x60 DUP4 ADD PUSH1 0x0 DUP4 ADD MLOAD DUP5 DUP3 SUB PUSH1 0x0 DUP7 ADD MSTORE PUSH2 0x1128 DUP3 DUP3 PUSH2 0xF9F JUMP JUMPDEST SWAP2 POP POP PUSH1 0x20 DUP4 ADD MLOAD PUSH2 0x113D PUSH1 0x20 DUP7 ADD DUP3 PUSH2 0xFD8 JUMP JUMPDEST POP PUSH1 0x40 DUP4 ADD MLOAD PUSH2 0x1150 PUSH1 0x40 DUP7 ADD DUP3 PUSH2 0xFD8 JUMP JUMPDEST POP DUP1 SWAP2 POP POP SWAP3 SWAP2 POP POP JUMP JUMPDEST PUSH1 0x0 PUSH1 0xA0 DUP3 ADD SWAP1 POP PUSH2 0x1170 PUSH1 0x0 DUP4 ADD DUP9 PUSH2 0xF39 JUMP JUMPDEST DUP2 DUP2 SUB PUSH1 0x20 DUP4 ADD MSTORE PUSH2 0x1182 DUP2 DUP8 PUSH2 0xFE7 JUMP JUMPDEST SWAP1 POP DUP2 DUP2 SUB PUSH1 0x40 DUP4 ADD MSTORE PUSH2 0x1196 DUP2 DUP7 PUSH2 0x106B JUMP JUMPDEST SWAP1 POP DUP2 DUP2 SUB PUSH1 0x60 DUP4 ADD MSTORE PUSH2 0x11AA DUP2 DUP6 PUSH2 0x10BB JUMP JUMPDEST SWAP1 POP DUP2 DUP2 SUB PUSH1 0x80 DUP4 ADD MSTORE PUSH2 0x11BE DUP2 DUP5 PUSH2 0x110B JUMP JUMPDEST SWAP1 POP SWAP7 SWAP6 POP POP POP POP POP POP JUMP JUMPDEST PUSH1 0x0 DUP1 REVERT JUMPDEST PUSH1 0x0 DUP1 REVERT JUMPDEST PUSH32 0x4E487B7100000000000000000000000000000000000000000000000000000000 PUSH1 0x0 MSTORE PUSH1 0x41 PUSH1 0x4 MSTORE PUSH1 0x24 PUSH1 0x0 REVERT JUMPDEST PUSH2 0x120C DUP3 PUSH2 0xF8E JUMP JUMPDEST DUP2 ADD DUP2 DUP2 LT PUSH8 0xFFFFFFFFFFFFFFFF DUP3 GT OR ISZERO PUSH2 0x122B JUMPI PUSH2 0x122A PUSH2 0x11D4 JUMP JUMPDEST JUMPDEST DUP1 PUSH1 0x40 MSTORE POP POP POP JUMP JUMPDEST PUSH1 0x0 PUSH2 0x123E PUSH2 0xEC2 JUMP JUMPDEST SWAP1 POP PUSH2 0x124A DUP3 DUP3 PUSH2 0x1203 JUMP JUMPDEST SWAP2 SWAP1 POP JUMP JUMPDEST PUSH1 0x0 PUSH8 0xFFFFFFFFFFFFFFFF DUP3 GT ISZERO PUSH2 0x126A JUMPI PUSH2 0x1269 PUSH2 0x11D4 JUMP JUMPDEST JUMPDEST PUSH2 0x1273 DUP3 PUSH2 0xF8E JUMP JUMPDEST SWAP1 POP PUSH1 0x20 DUP2 ADD SWAP1 POP SWAP2 SWAP1 POP JUMP JUMPDEST DUP3 DUP2 DUP4 CALLDATACOPY PUSH1 0x0 DUP4 DUP4 ADD MSTORE POP POP POP JUMP JUMPDEST PUSH1 0x0 PUSH2 0x12A2 PUSH2 0x129D DUP5 PUSH2 0x124F JUMP JUMPDEST PUSH2 0x1234 JUMP JUMPDEST SWAP1 POP DUP3 DUP2 MSTORE PUSH1 0x20 DUP2 ADD DUP5 DUP5 DUP5 ADD GT ISZERO PUSH2 0x12BE JUMPI PUSH2 0x12BD PUSH2 0x11CF JUMP JUMPDEST JUMPDEST PUSH2 0x12C9 DUP5 DUP3 DUP6 PUSH2 0x1280 JUMP JUMPDEST POP SWAP4 SWAP3 POP POP POP JUMP JUMPDEST PUSH1 0x0 DUP3 PUSH1 0x1F DUP4 ADD SLT PUSH2 0x12E6 JUMPI PUSH2 0x12E5 PUSH2 0x11CA JUMP JUMPDEST JUMPDEST DUP2 CALLDATALOAD PUSH2 0x12F6 DUP5 DUP3 PUSH1 0x20 DUP7 ADD PUSH2 0x128F JUMP JUMPDEST SWAP2 POP POP SWAP3 SWAP2 POP POP JUMP JUMPDEST PUSH1 0x0 DUP1 PUSH1 0x0 DUP1 PUSH1 0x0 DUP1 PUSH1 0xC0 DUP8 DUP10 SUB SLT ISZERO PUSH2 0x131C JUMPI PUSH2 0x131B PUSH2 0xECC JUMP JUMPDEST JUMPDEST PUSH1 0x0 PUSH2 0x132A DUP10 DUP3 DUP11 ADD PUSH2 0xEF7 JUMP JUMPDEST SWAP7 POP POP PUSH1 0x20 DUP8 ADD CALLDATALOAD PUSH8 0xFFFFFFFFFFFFFFFF DUP2 GT ISZERO PUSH2 0x134B JUMPI PUSH2 0x134A PUSH2 0xED1 JUMP JUMPDEST JUMPDEST PUSH2 0x1357 DUP10 DUP3 DUP11 ADD PUSH2 0x12D1 JUMP JUMPDEST SWAP6 POP POP PUSH1 0x40 DUP8 ADD CALLDATALOAD PUSH8 0xFFFFFFFFFFFFFFFF DUP2 GT ISZERO PUSH2 0x1378 JUMPI PUSH2 0x1377 PUSH2 0xED1 JUMP JUMPDEST JUMPDEST PUSH2 0x1384 DUP10 DUP3 DUP11 ADD PUSH2 0x12D1 JUMP JUMPDEST SWAP5 POP POP PUSH1 0x60 DUP8 ADD CALLDATALOAD PUSH8 0xFFFFFFFFFFFFFFFF DUP2 GT ISZERO PUSH2 0x13A5 JUMPI PUSH2 0x13A4 PUSH2 0xED1 JUMP JUMPDEST JUMPDEST PUSH2 0x13B1 DUP10 DUP3 DUP11 ADD PUSH2 0x12D1 JUMP JUMPDEST SWAP4 POP POP PUSH1 0x80 PUSH2 0x13C2 DUP10 DUP3 DUP11 ADD PUSH2 0xEF7 JUMP JUMPDEST SWAP3 POP POP PUSH1 0xA0 PUSH2 0x13D3 DUP10 DUP3 DUP11 ADD PUSH2 0xEF7 JUMP JUMPDEST SWAP2 POP POP SWAP3 SWAP6 POP SWAP3 SWAP6 POP SWAP3 SWAP6 JUMP JUMPDEST PUSH1 0x0 DUP1 PUSH1 0x0 DUP1 PUSH1 0x80 DUP6 DUP8 SUB SLT ISZERO PUSH2 0x13FA JUMPI PUSH2 0x13F9 PUSH2 0xECC JUMP JUMPDEST JUMPDEST PUSH1 0x0 PUSH2 0x1408 DUP8 DUP3 DUP9 ADD PUSH2 0xEF7 JUMP JUMPDEST SWAP5 POP POP PUSH1 0x20 DUP6 ADD CALLDATALOAD PUSH8 0xFFFFFFFFFFFFFFFF DUP2 GT ISZERO PUSH2 0x1429 JUMPI PUSH2 0x1428 PUSH2 0xED1 JUMP JUMPDEST JUMPDEST PUSH2 0x1435 DUP8 DUP3 DUP9 ADD PUSH2 0x12D1 JUMP JUMPDEST SWAP4 POP POP PUSH1 0x40 PUSH2 0x1446 DUP8 DUP3 DUP9 ADD PUSH2 0xEF7 JUMP JUMPDEST SWAP3 POP POP PUSH1 0x60 PUSH2 0x1457 DUP8 DUP3 DUP9 ADD PUSH2 0xEF7 JUMP JUMPDEST SWAP2 POP POP SWAP3 SWAP6 SWAP2 SWAP5 POP SWAP3 POP JUMP JUMPDEST PUSH1 0x0 PUSH1 0xA0 DUP4 ADD PUSH1 0x0 DUP4 ADD MLOAD DUP5 DUP3 SUB PUSH1 0x0 DUP7 ADD MSTORE PUSH2 0x1480 DUP3 DUP3 PUSH2 0xF9F JUMP JUMPDEST SWAP2 POP POP PUSH1 0x20 DUP4 ADD MLOAD DUP5 DUP3 SUB PUSH1 0x20 DUP7 ADD MSTORE PUSH2 0x149A DUP3 DUP3 PUSH2 0xF9F JUMP JUMPDEST SWAP2 POP POP PUSH1 0x40 DUP4 ADD MLOAD DUP5 DUP3 SUB PUSH1 0x40 DUP7 ADD MSTORE PUSH2 0x14B4 DUP3 DUP3 PUSH2 0xF9F JUMP JUMPDEST SWAP2 POP POP PUSH1 0x60 DUP4 ADD MLOAD PUSH2 0x14C9 PUSH1 0x60 DUP7 ADD DUP3 PUSH2 0xFD8 JUMP JUMPDEST POP PUSH1 0x80 DUP4 ADD MLOAD PUSH2 0x14DC PUSH1 0x80 DUP7 ADD DUP3 PUSH2 0xFD8 JUMP JUMPDEST POP DUP1 SWAP2 POP POP SWAP3 SWAP2 POP POP JUMP JUMPDEST PUSH1 0x0 PUSH1 0x60 DUP4 ADD PUSH1 0x0 DUP4 ADD MLOAD DUP5 DUP3 SUB PUSH1 0x0 DUP7 ADD MSTORE PUSH2 0x1504 DUP3 DUP3 PUSH2 0xF9F JUMP JUMPDEST SWAP2 POP POP PUSH1 0x20 DUP4 ADD MLOAD PUSH2 0x1519 PUSH1 0x20 DUP7 ADD DUP3 PUSH2 0xFD8 JUMP JUMPDEST POP PUSH1 0x40 DUP4 ADD MLOAD PUSH2 0x152C PUSH1 0x40 DUP7 ADD DUP3 PUSH2 0xFD8 JUMP JUMPDEST POP DUP1 SWAP2 POP POP SWAP3 SWAP2 POP POP JUMP JUMPDEST PUSH1 0x0 PUSH1 0x60 DUP4 ADD PUSH1 0x0 DUP4 ADD MLOAD DUP5 DUP3 SUB PUSH1 0x0 DUP7 ADD MSTORE PUSH2 0x1554 DUP3 DUP3 PUSH2 0xF9F JUMP JUMPDEST SWAP2 POP POP PUSH1 0x20 DUP4 ADD MLOAD PUSH2 0x1569 PUSH1 0x20 DUP7 ADD DUP3 PUSH2 0xFD8 JUMP JUMPDEST POP PUSH1 0x40 DUP4 ADD MLOAD PUSH2 0x157C PUSH1 0x40 DUP7 ADD DUP3 PUSH2 0xFD8 JUMP JUMPDEST POP DUP1 SWAP2 POP POP SWAP3 SWAP2 POP POP JUMP JUMPDEST PUSH1 0x0 PUSH1 0x60 DUP4 ADD PUSH1 0x0 DUP4 ADD MLOAD DUP5 DUP3 SUB PUSH1 0x0 DUP7 ADD MSTORE PUSH2 0x15A4 DUP3 DUP3 PUSH2 0xF9F JUMP JUMPDEST SWAP2 POP POP PUSH1 0x20 DUP4 ADD MLOAD PUSH2 0x15B9 PUSH1 0x20 DUP7 ADD DUP3 PUSH2 0xFD8 JUMP JUMPDEST POP PUSH1 0x40 DUP4 ADD MLOAD PUSH2 0x15CC PUSH1 0x40 DUP7 ADD DUP3 PUSH2 0xFD8 JUMP JUMPDEST POP DUP1 SWAP2 POP POP SWAP3 SWAP2 POP POP JUMP JUMPDEST PUSH1 0x0 PUSH1 0xA0 DUP4 ADD PUSH1 0x0 DUP4 ADD MLOAD PUSH2 0x15EF PUSH1 0x0 DUP7 ADD DUP3 PUSH2 0xFD8 JUMP JUMPDEST POP PUSH1 0x20 DUP4 ADD MLOAD DUP5 DUP3 SUB PUSH1 0x20 DUP7 ADD MSTORE PUSH2 0x1607 DUP3 DUP3 PUSH2 0x1463 JUMP JUMPDEST SWAP2 POP POP PUSH1 0x40 DUP4 ADD MLOAD DUP5 DUP3 SUB PUSH1 0x40 DUP7 ADD MSTORE PUSH2 0x1621 DUP3 DUP3 PUSH2 0x14E7 JUMP JUMPDEST SWAP2 POP POP PUSH1 0x60 DUP4 ADD MLOAD DUP5 DUP3 SUB PUSH1 0x60 DUP7 ADD MSTORE PUSH2 0x163B DUP3 DUP3 PUSH2 0x1537 JUMP JUMPDEST SWAP2 POP POP PUSH1 0x80 DUP4 ADD MLOAD DUP5 DUP3 SUB PUSH1 0x80 DUP7 ADD MSTORE PUSH2 0x1655 DUP3 DUP3 PUSH2 0x1587 JUMP JUMPDEST SWAP2 POP POP DUP1 SWAP2 POP POP SWAP3 SWAP2 POP POP JUMP JUMPDEST PUSH1 0x0 PUSH1 0x20 DUP3 ADD SWAP1 POP DUP2 DUP2 SUB PUSH1 0x0 DUP4 ADD MSTORE PUSH2 0x167C DUP2 DUP5 PUSH2 0x15D7 JUMP JUMPDEST SWAP1 POP SWAP3 SWAP2 POP POP JUMP JUMPDEST PUSH32 0x4E487B7100000000000000000000000000000000000000000000000000000000 PUSH1 0x0 MSTORE PUSH1 0x22 PUSH1 0x4 MSTORE PUSH1 0x24 PUSH1 0x0 REVERT JUMPDEST PUSH1 0x0 PUSH1 0x2 DUP3 DIV SWAP1 POP PUSH1 0x1 DUP3 AND DUP1 PUSH2 0x16CB JUMPI PUSH1 0x7F DUP3 AND SWAP2 POP JUMPDEST PUSH1 0x20 DUP3 LT DUP2 SUB PUSH2 0x16DE JUMPI PUSH2 0x16DD PUSH2 0x1684 JUMP JUMPDEST JUMPDEST POP SWAP2 SWAP1 POP JUMP JUMPDEST PUSH1 0x0 DUP3 DUP3 MSTORE PUSH1 0x20 DUP3 ADD SWAP1 POP SWAP3 SWAP2 POP POP JUMP JUMPDEST PUSH32 0x50726F6475637420616C72656164792065786973747300000000000000000000 PUSH1 0x0 DUP3 ADD MSTORE POP JUMP JUMPDEST PUSH1 0x0 PUSH2 0x172B PUSH1 0x16 DUP4 PUSH2 0x16E4 JUMP JUMPDEST SWAP2 POP PUSH2 0x1736 DUP3 PUSH2 0x16F5 JUMP JUMPDEST PUSH1 0x20 DUP3 ADD SWAP1 POP SWAP2 SWAP1 POP JUMP JUMPDEST PUSH1 0x0 PUSH1 0x20 DUP3 ADD SWAP1 POP DUP2 DUP2 SUB PUSH1 0x0 DUP4 ADD MSTORE PUSH2 0x175A DUP2 PUSH2 0x171E JUMP JUMPDEST SWAP1 POP SWAP2 SWAP1 POP JUMP JUMPDEST PUSH1 0x0 DUP2 SWAP1 POP DUP2 PUSH1 0x0 MSTORE PUSH1 0x20 PUSH1 0x0 KECCAK256 SWAP1 POP SWAP2 SWAP1 POP JUMP JUMPDEST PUSH1 0x0 PUSH1 0x20 PUSH1 0x1F DUP4 ADD DIV SWAP1 POP SWAP2 SWAP1 POP JUMP JUMPDEST PUSH1 0x0 DUP3 DUP3 SHL SWAP1 POP SWAP3 SWAP2 POP POP JUMP JUMPDEST PUSH1 0x0 PUSH1 0x8 DUP4 MUL PUSH2 0x17C3 PUSH32 0xFFFFFFFFFFFFFFFFFFFFFFFFFFFFFFFFFFFFFFFFFFFFFFFFFFFFFFFFFFFFFFFF DUP3 PUSH2 0x1786 JUMP JUMPDEST PUSH2 0x17CD DUP7 DUP4 PUSH2 0x1786 JUMP JUMPDEST SWAP6 POP DUP1 NOT DUP5 AND SWAP4 POP DUP1 DUP7 AND DUP5 OR SWAP3 POP POP POP SWAP4 SWAP3 POP POP POP JUMP JUMPDEST PUSH1 0x0 DUP2 SWAP1 POP SWAP2 SWAP1 POP JUMP JUMPDEST PUSH1 0x0 PUSH2 0x180A PUSH2 0x1805 PUSH2 0x1800 DUP5 PUSH2 0xED6 JUMP JUMPDEST PUSH2 0x17E5 JUMP JUMPDEST PUSH2 0xED6 JUMP JUMPDEST SWAP1 POP SWAP2 SWAP1 POP JUMP JUMPDEST PUSH1 0x0 DUP2 SWAP1 POP SWAP2 SWAP1 POP JUMP JUMPDEST PUSH2 0x1824 DUP4 PUSH2 0x17EF JUMP JUMPDEST PUSH2 0x1838 PUSH2 0x1830 DUP3 PUSH2 0x1811 JUMP JUMPDEST DUP5 DUP5 SLOAD PUSH2 0x1793 JUMP JUMPDEST DUP3 SSTORE POP POP POP POP JUMP JUMPDEST PUSH1 0x0 SWAP1 JUMP JUMPDEST PUSH2 0x184D PUSH2 0x1840 JUMP JUMPDEST PUSH2 0x1858 DUP2 DUP5 DUP5 PUSH2 0x181B JUMP JUMPDEST POP POP POP JUMP JUMPDEST JUMPDEST DUP2 DUP2 LT ISZERO PUSH2 0x187C JUMPI PUSH2 0x1871 PUSH1 0x0 DUP3 PUSH2 0x1845 JUMP JUMPDEST PUSH1 0x1 DUP2 ADD SWAP1 POP PUSH2 0x185E JUMP JUMPDEST POP POP JUMP JUMPDEST PUSH1 0x1F DUP3 GT ISZERO PUSH2 0x18C1 JUMPI PUSH2 0x1892 DUP2 PUSH2 0x1761 JUMP JUMPDEST PUSH2 0x189B DUP5 PUSH2 0x1776 JUMP JUMPDEST DUP2 ADD PUSH1 0x20 DUP6 LT ISZERO PUSH2 0x18AA JUMPI DUP2 SWAP1 POP JUMPDEST PUSH2 0x18BE PUSH2 0x18B6 DUP6 PUSH2 0x1776 JUMP JUMPDEST DUP4 ADD DUP3 PUSH2 0x185D JUMP JUMPDEST POP POP JUMPDEST POP POP POP JUMP JUMPDEST PUSH1 0x0 DUP3 DUP3 SHR SWAP1 POP SWAP3 SWAP2 POP POP JUMP JUMPDEST PUSH1 0x0 PUSH2 0x18E4 PUSH1 0x0 NOT DUP5 PUSH1 0x8 MUL PUSH2 0x18C6 JUMP JUMPDEST NOT DUP1 DUP4 AND SWAP2 POP POP SWAP3 SWAP2 POP POP JUMP JUMPDEST PUSH1 0x0 PUSH2 0x18FD DUP4 DUP4 PUSH2 0x18D3 JUMP JUMPDEST SWAP2 POP DUP3 PUSH1 0x2 MUL DUP3 OR SWAP1 POP SWAP3 SWAP2 POP POP JUMP JUMPDEST PUSH2 0x1916 DUP3 PUSH2 0xF48 JUMP JUMPDEST PUSH8 0xFFFFFFFFFFFFFFFF DUP2 GT ISZERO PUSH2 0x192F JUMPI PUSH2 0x192E PUSH2 0x11D4 JUMP JUMPDEST JUMPDEST PUSH2 0x1939 DUP3 SLOAD PUSH2 0x16B3 JUMP JUMPDEST PUSH2 0x1944 DUP3 DUP3 DUP6 PUSH2 0x1880 JUMP JUMPDEST PUSH1 0x0 PUSH1 0x20 SWAP1 POP PUSH1 0x1F DUP4 GT PUSH1 0x1 DUP2 EQ PUSH2 0x1977 JUMPI PUSH1 0x0 DUP5 ISZERO PUSH2 0x1965 JUMPI DUP3 DUP8 ADD MLOAD SWAP1 POP JUMPDEST PUSH2 0x196F DUP6 DUP3 PUSH2 0x18F1 JUMP JUMPDEST DUP7 SSTORE POP PUSH2 0x19D7 JUMP JUMPDEST PUSH1 0x1F NOT DUP5 AND PUSH2 0x1985 DUP7 PUSH2 0x1761 JUMP JUMPDEST PUSH1 0x0 JUMPDEST DUP3 DUP2 LT ISZERO PUSH2 0x19AD JUMPI DUP5 DUP10 ADD MLOAD DUP3 SSTORE PUSH1 0x1 DUP3 ADD SWAP2 POP PUSH1 0x20 DUP6 ADD SWAP5 POP PUSH1 0x20 DUP2 ADD SWAP1 POP PUSH2 0x1988 JUMP JUMPDEST DUP7 DUP4 LT ISZERO PUSH2 0x19CA JUMPI DUP5 DUP10 ADD MLOAD PUSH2 0x19C6 PUSH1 0x1F DUP10 AND DUP3 PUSH2 0x18D3 JUMP JUMPDEST DUP4 SSTORE POP JUMPDEST PUSH1 0x1 PUSH1 0x2 DUP9 MUL ADD DUP9 SSTORE POP POP POP JUMPDEST POP POP POP POP POP POP JUMP JUMPDEST PUSH32 0x50726F6475637420637265617465642077697468204661726D65724461746100 PUSH1 0x0 DUP3 ADD MSTORE POP JUMP JUMPDEST PUSH1 0x0 PUSH2 0x1A15 PUSH1 0x1F DUP4 PUSH2 0x16E4 JUMP JUMPDEST SWAP2 POP PUSH2 0x1A20 DUP3 PUSH2 0x19DF JUMP JUMPDEST PUSH1 0x20 DUP3 ADD SWAP1 POP SWAP2 SWAP1 POP JUMP JUMPDEST PUSH1 0x0 PUSH1 0x40 DUP3 ADD SWAP1 POP PUSH2 0x1A40 PUSH1 0x0 DUP4 ADD DUP5 PUSH2 0xF39 JUMP JUMPDEST DUP2 DUP2 SUB PUSH1 0x20 DUP4 ADD MSTORE PUSH2 0x1A51 DUP2 PUSH2 0x1A08 JUMP JUMPDEST SWAP1 POP SWAP3 SWAP2 POP POP JUMP JUMPDEST PUSH32 0x50726F636573736F724461746120757064617465640000000000000000000000 PUSH1 0x0 DUP3 ADD MSTORE POP JUMP JUMPDEST PUSH1 0x0 PUSH2 0x1A8F PUSH1 0x15 DUP4 PUSH2 0x16E4 JUMP JUMPDEST SWAP2 POP PUSH2 0x1A9A DUP3 PUSH2 0x1A59 JUMP JUMPDEST PUSH1 0x20 DUP3 ADD SWAP1 POP SWAP2 SWAP1 POP JUMP JUMPDEST PUSH1 0x0 PUSH1 0x40 DUP3 ADD SWAP1 POP PUSH2 0x1ABA PUSH1 0x0 DUP4 ADD DUP5 PUSH2 0xF39 JUMP JUMPDEST DUP2 DUP2 SUB PUSH1 0x20 DUP4 ADD MSTORE PUSH2 0x1ACB DUP2 PUSH2 0x1A82 JUMP JUMPDEST SWAP1 POP SWAP3 SWAP2 POP POP JUMP JUMPDEST PUSH32 0x4D616E7566616374757265724461746120757064617465640000000000000000 PUSH1 0x0 DUP3 ADD MSTORE POP JUMP JUMPDEST PUSH1 0x0 PUSH2 0x1B09 PUSH1 0x18 DUP4 PUSH2 0x16E4 JUMP JUMPDEST SWAP2 POP PUSH2 0x1B14 DUP3 PUSH2 0x1AD3 JUMP JUMPDEST PUSH1 0x20 DUP3 ADD SWAP1 POP SWAP2 SWAP1 POP JUMP JUMPDEST PUSH1 0x0 PUSH1 0x40 DUP3 ADD SWAP1 POP PUSH2 0x1B34 PUSH1 0x0 DUP4 ADD DUP5 PUSH2 0xF39 JUMP JUMPDEST DUP2 DUP2 SUB PUSH1 0x20 DUP4 ADD MSTORE PUSH2 0x1B45 DUP2 PUSH2 0x1AFC JUMP JUMPDEST SWAP1 POP SWAP3 SWAP2 POP POP JUMP JUMPDEST PUSH32 0x4469737472696275746F72446174612075706461746564000000000000000000 PUSH1 0x0 DUP3 ADD MSTORE POP JUMP JUMPDEST PUSH1 0x0 PUSH2 0x1B83 PUSH1 0x17 DUP4 PUSH2 0x16E4 JUMP JUMPDEST SWAP2 POP PUSH2 0x1B8E DUP3 PUSH2 0x1B4D JUMP JUMPDEST PUSH1 0x20 DUP3 ADD SWAP1 POP SWAP2 SWAP1 POP JUMP JUMPDEST PUSH1 0x0 PUSH1 0x40 DUP3 ADD SWAP1 POP PUSH2 0x1BAE PUSH1 0x0 DUP4 ADD DUP5 PUSH2 0xF39 JUMP JUMPDEST DUP2 DUP2 SUB PUSH1 0x20 DUP4 ADD MSTORE PUSH2 0x1BBF DUP2 PUSH2 0x1B76 JUMP JUMPDEST SWAP1 POP SWAP3 SWAP2 POP POP JUMP INVALID LOG2 PUSH5 0x6970667358 0x22 SLT KECCAK256 PUSH16 0xB20722A644E48D7B5706B4AA51A6FD1 0xED DUP3 PREVRANDAO 0xE1 0xCE POP RETURNDATACOPY 0xE3 0x2E ADDRESS 0xC4 0xD9 LOG1 0xBB PUSH29 0x64736F6C634300081B0033000000000000000000000000000000000000 "
        },
        "methodIdentifiers": {
          "addProduct(uint256,string,string,string,uint256,uint256)": "8a4c747f",
          "getProductData(uint256)": "d6d0be9f",
          "products(uint256)": "7acc0b20",
          "updateDistributorData(uint256,string,uint256,uint256)": "effb3b19",
          "updateManufacturerData(uint256,string,uint256,uint256)": "ed96c9e6",
          "updateProcessorData(uint256,string,uint256,uint256)": "c691f37c"
        }
      }
    }
  }
}